{
  "_format": "hh-sol-artifact-1",
  "contractName": "student",
  "sourceName": "contracts/students.sol",
  "abi": [
    {
      "inputs": [
        {
          "internalType": "string",
          "name": "_name",
          "type": "string"
        },
        {
          "internalType": "string",
          "name": "_dob",
          "type": "string"
        },
        {
          "internalType": "string",
          "name": "_aadhar",
          "type": "string"
        },
        {
          "internalType": "uint256",
          "name": "uptoQual",
          "type": "uint256"
        }
      ],
      "stateMutability": "nonpayable",
      "type": "constructor"
    },
    {
      "anonymous": false,
      "inputs": [
        {
          "indexed": true,
          "internalType": "address",
          "name": "doc",
          "type": "address"
        },
        {
          "indexed": true,
          "internalType": "uint256",
          "name": "course",
          "type": "uint256"
        },
        {
          "indexed": false,
          "internalType": "string",
          "name": "url",
          "type": "string"
        }
      ],
      "name": "certificateUploaded",
      "type": "event"
    },
    {
      "inputs": [],
      "name": "aadhar",
      "outputs": [
        {
          "internalType": "string",
          "name": "",
          "type": "string"
        }
      ],
      "stateMutability": "view",
      "type": "function"
    },
    {
      "inputs": [],
      "name": "dob",
      "outputs": [
        {
          "internalType": "string",
          "name": "",
          "type": "string"
        }
      ],
      "stateMutability": "view",
      "type": "function"
    },
    {
      "inputs": [
        {
          "internalType": "uint256",
          "name": "course",
          "type": "uint256"
        },
        {
          "internalType": "string",
          "name": "_url",
          "type": "string"
        }
      ],
      "name": "feedData",
      "outputs": [],
      "stateMutability": "nonpayable",
      "type": "function"
    },
    {
      "inputs": [],
      "name": "name",
      "outputs": [
        {
          "internalType": "string",
          "name": "",
          "type": "string"
        }
      ],
      "stateMutability": "view",
      "type": "function"
    },
    {
      "inputs": [],
      "name": "qualification",
      "outputs": [
        {
          "internalType": "enum student.uptoQualification",
          "name": "",
          "type": "uint8"
        }
      ],
      "stateMutability": "view",
      "type": "function"
    }
  ],
  "bytecode": "0x60806040523480156200001157600080fd5b50604051620016cb380380620016cb833981810160405281019062000037919062000287565b836000908162000048919062000597565b5082600190816200005a919062000597565b5081600290816200006c919062000597565b508060028111156200008357620000826200067e565b5b600360006101000a81548160ff02191690836002811115620000aa57620000a96200067e565b5b021790555050505050620006ad565b6000604051905090565b600080fd5b600080fd5b600080fd5b600080fd5b6000601f19601f8301169050919050565b7f4e487b7100000000000000000000000000000000000000000000000000000000600052604160045260246000fd5b6200012282620000d7565b810181811067ffffffffffffffff82111715620001445762000143620000e8565b5b80604052505050565b600062000159620000b9565b905062000167828262000117565b919050565b600067ffffffffffffffff8211156200018a5762000189620000e8565b5b6200019582620000d7565b9050602081019050919050565b60005b83811015620001c2578082015181840152602081019050620001a5565b60008484015250505050565b6000620001e5620001df846200016c565b6200014d565b905082815260208101848484011115620002045762000203620000d2565b5b62000211848285620001a2565b509392505050565b600082601f830112620002315762000230620000cd565b5b815162000243848260208601620001ce565b91505092915050565b6000819050919050565b62000261816200024c565b81146200026d57600080fd5b50565b600081519050620002818162000256565b92915050565b60008060008060808587031215620002a457620002a3620000c3565b5b600085015167ffffffffffffffff811115620002c557620002c4620000c8565b5b620002d38782880162000219565b945050602085015167ffffffffffffffff811115620002f757620002f6620000c8565b5b620003058782880162000219565b935050604085015167ffffffffffffffff811115620003295762000328620000c8565b5b620003378782880162000219565b92505060606200034a8782880162000270565b91505092959194509250565b600081519050919050565b7f4e487b7100000000000000000000000000000000000000000000000000000000600052602260045260246000fd5b60006002820490506001821680620003a957607f821691505b602082108103620003bf57620003be62000361565b5b50919050565b60008190508160005260206000209050919050565b60006020601f8301049050919050565b600082821b905092915050565b600060088302620004297fffffffffffffffffffffffffffffffffffffffffffffffffffffffffffffffff82620003ea565b620004358683620003ea565b95508019841693508086168417925050509392505050565b6000819050919050565b600062000478620004726200046c846200024c565b6200044d565b6200024c565b9050919050565b6000819050919050565b620004948362000457565b620004ac620004a3826200047f565b848454620003f7565b825550505050565b600090565b620004c3620004b4565b620004d081848462000489565b505050565b5b81811015620004f857620004ec600082620004b9565b600181019050620004d6565b5050565b601f82111562000547576200051181620003c5565b6200051c84620003da565b810160208510156200052c578190505b620005446200053b85620003da565b830182620004d5565b50505b505050565b600082821c905092915050565b60006200056c600019846008026200054c565b1980831691505092915050565b600062000587838362000559565b9150826002028217905092915050565b620005a28262000356565b67ffffffffffffffff811115620005be57620005bd620000e8565b5b620005ca825462000390565b620005d7828285620004fc565b600060209050601f8311600181146200060f5760008415620005fa578287015190505b62000606858262000579565b86555062000676565b601f1984166200061f86620003c5565b60005b82811015620006495784890151825560018201915060208501945060208101905062000622565b8683101562000669578489015162000665601f89168262000559565b8355505b6001600288020188555050505b505050505050565b7f4e487b7100000000000000000000000000000000000000000000000000000000600052602160045260246000fd5b61100e80620006bd6000396000f3fe60806040523480156200001157600080fd5b50600436106200005e5760003560e01c806306fdde031462000063578063166b005314620000855780633b2c22b014620000a75780638202e0be14620000c9578063f99ab8e214620000e9575b600080fd5b6200006d6200010b565b6040516200007c91906200041d565b60405180910390f35b6200008f620001a1565b6040516200009e91906200041d565b60405180910390f35b620000b162000237565b604051620000c09190620004c1565b60405180910390f35b620000e76004803603810190620000e191906200067e565b6200024a565b005b620000f3620002df565b6040516200010291906200041d565b60405180910390f35b600080546200011a9062000713565b80601f0160208091040260200160405190810160405280929190818152602001828054620001489062000713565b8015620001995780601f106200016d5761010080835404028352916020019162000199565b820191906000526020600020905b8154815290600101906020018083116200017b57829003601f168201915b505050505081565b60018054620001b09062000713565b80601f0160208091040260200160405190810160405280929190818152602001828054620001de9062000713565b80156200022f5780601f1062000203576101008083540402835291602001916200022f565b820191906000526020600020905b8154815290600101906020018083116200021157829003601f168201915b505050505081565b600360009054906101000a900460ff1681565b600082826040516200025c9062000375565b6200026992919062000759565b604051809103906000f08015801562000286573d6000803e3d6000fd5b509050828173ffffffffffffffffffffffffffffffffffffffff167f39f9e3293c6bb2c96e06f664ef81aa5212a7ca3546545238eb69a0cb60623bd584604051620002d291906200041d565b60405180910390a3505050565b60028054620002ee9062000713565b80601f01602080910402602001604051908101604052809291908181526020018280546200031c9062000713565b80156200036d5780601f1062000341576101008083540402835291602001916200036d565b820191906000526020600020905b8154815290600101906020018083116200034f57829003601f168201915b505050505081565b61084b806200078e83390190565b600081519050919050565b600082825260208201905092915050565b60005b83811015620003bf578082015181840152602081019050620003a2565b60008484015250505050565b6000601f19601f8301169050919050565b6000620003e98262000383565b620003f581856200038e565b9350620004078185602086016200039f565b6200041281620003cb565b840191505092915050565b60006020820190508181036000830152620004398184620003dc565b905092915050565b7f4e487b7100000000000000000000000000000000000000000000000000000000600052602160045260246000fd5b6003811062000484576200048362000441565b5b50565b6000819050620004978262000470565b919050565b6000620004a98262000487565b9050919050565b620004bb816200049c565b82525050565b6000602082019050620004d86000830184620004b0565b92915050565b6000604051905090565b600080fd5b600080fd5b6000819050919050565b6200050781620004f2565b81146200051357600080fd5b50565b6000813590506200052781620004fc565b92915050565b600080fd5b600080fd5b7f4e487b7100000000000000000000000000000000000000000000000000000000600052604160045260246000fd5b6200057182620003cb565b810181811067ffffffffffffffff8211171562000593576200059262000537565b5b80604052505050565b6000620005a8620004de565b9050620005b6828262000566565b919050565b600067ffffffffffffffff821115620005d957620005d862000537565b5b620005e482620003cb565b9050602081019050919050565b82818337600083830152505050565b6000620006176200061184620005bb565b6200059c565b90508281526020810184848401111562000636576200063562000532565b5b62000643848285620005f1565b509392505050565b600082601f8301126200066357620006626200052d565b5b81356200067584826020860162000600565b91505092915050565b60008060408385031215620006985762000697620004e8565b5b6000620006a88582860162000516565b925050602083013567ffffffffffffffff811115620006cc57620006cb620004ed565b5b620006da858286016200064b565b9150509250929050565b7f4e487b7100000000000000000000000000000000000000000000000000000000600052602260045260246000fd5b600060028204905060018216806200072c57607f821691505b602082108103620007425762000741620006e4565b5b50919050565b6200075381620004f2565b82525050565b600060408201905062000770600083018562000748565b8181036020830152620007848184620003dc565b9050939250505056fe60806040523480156200001157600080fd5b506040516200084b3803806200084b833981810160405281019062000037919062000226565b8160008190555080600190816200004f9190620004cd565b505050620005b4565b6000604051905090565b600080fd5b600080fd5b6000819050919050565b62000081816200006c565b81146200008d57600080fd5b50565b600081519050620000a18162000076565b92915050565b600080fd5b600080fd5b6000601f19601f8301169050919050565b7f4e487b7100000000000000000000000000000000000000000000000000000000600052604160045260246000fd5b620000fc82620000b1565b810181811067ffffffffffffffff821117156200011e576200011d620000c2565b5b80604052505050565b60006200013362000058565b9050620001418282620000f1565b919050565b600067ffffffffffffffff821115620001645762000163620000c2565b5b6200016f82620000b1565b9050602081019050919050565b60005b838110156200019c5780820151818401526020810190506200017f565b60008484015250505050565b6000620001bf620001b98462000146565b62000127565b905082815260208101848484011115620001de57620001dd620000ac565b5b620001eb8482856200017c565b509392505050565b600082601f8301126200020b576200020a620000a7565b5b81516200021d848260208601620001a8565b91505092915050565b6000806040838503121562000240576200023f62000062565b5b6000620002508582860162000090565b925050602083015167ffffffffffffffff81111562000274576200027362000067565b5b6200028285828601620001f3565b9150509250929050565b600081519050919050565b7f4e487b7100000000000000000000000000000000000000000000000000000000600052602260045260246000fd5b60006002820490506001821680620002df57607f821691505b602082108103620002f557620002f462000297565b5b50919050565b60008190508160005260206000209050919050565b60006020601f8301049050919050565b600082821b905092915050565b6000600883026200035f7fffffffffffffffffffffffffffffffffffffffffffffffffffffffffffffffff8262000320565b6200036b868362000320565b95508019841693508086168417925050509392505050565b6000819050919050565b6000620003ae620003a8620003a2846200006c565b62000383565b6200006c565b9050919050565b6000819050919050565b620003ca836200038d565b620003e2620003d982620003b5565b8484546200032d565b825550505050565b600090565b620003f9620003ea565b62000406818484620003bf565b505050565b5b818110156200042e5762000422600082620003ef565b6001810190506200040c565b5050565b601f8211156200047d576200044781620002fb565b620004528462000310565b8101602085101562000462578190505b6200047a620004718562000310565b8301826200040b565b50505b505050565b600082821c905092915050565b6000620004a26000198460080262000482565b1980831691505092915050565b6000620004bd83836200048f565b9150826002028217905092915050565b620004d8826200028c565b67ffffffffffffffff811115620004f457620004f3620000c2565b5b620005008254620002c6565b6200050d82828562000432565b600060209050601f83116001811462000545576000841562000530578287015190505b6200053c8582620004af565b865550620005ac565b601f1984166200055586620002fb565b60005b828110156200057f5784890151825560018201915060208501945060208101905062000558565b868310156200059f57848901516200059b601f8916826200048f565b8355505b6001600288020188555050505b505050505050565b61028780620005c46000396000f3fe608060405234801561001057600080fd5b50600436106100365760003560e01c80635600f04f1461003b578063dcf6359114610059575b600080fd5b610043610077565b604051610050919061019b565b60405180910390f35b610061610105565b60405161006e91906101d6565b60405180910390f35b6001805461008490610220565b80601f01602080910402602001604051908101604052809291908181526020018280546100b090610220565b80156100fd5780601f106100d2576101008083540402835291602001916100fd565b820191906000526020600020905b8154815290600101906020018083116100e057829003601f168201915b505050505081565b60005481565b600081519050919050565b600082825260208201905092915050565b60005b8381101561014557808201518184015260208101905061012a565b60008484015250505050565b6000601f19601f8301169050919050565b600061016d8261010b565b6101778185610116565b9350610187818560208601610127565b61019081610151565b840191505092915050565b600060208201905081810360008301526101b58184610162565b905092915050565b6000819050919050565b6101d0816101bd565b82525050565b60006020820190506101eb60008301846101c7565b92915050565b7f4e487b7100000000000000000000000000000000000000000000000000000000600052602260045260246000fd5b6000600282049050600182168061023857607f821691505b60208210810361024b5761024a6101f1565b5b5091905056fea26469706673582212208a61ecde7137953c21ad24171c6c5f5ab5e70eaf141b5f5dbc0871ca74ec02cb64736f6c63430008180033a26469706673582212202bd6d7fc387d47d2cc574c267ba7fab65453f5c842786013570ae8b7da0d1d6964736f6c63430008180033",
  "linkReferences": {},
  "deployedLinkReferences": {}
}