{"contracts/students.sol":{"studentRecords":{"abi":[{"anonymous":false,"inputs":[{"indexed":true,"internalType":"address","name":"owner","type":"address"},{"indexed":true,"internalType":"string","name":"aadhar","type":"string"},{"indexed":false,"internalType":"string","name":"studentId","type":"string"},{"indexed":false,"internalType":"address","name":"hexStudentId","type":"address"},{"indexed":false,"internalType":"string","name":"name","type":"string"},{"indexed":false,"internalType":"string","name":"dob","type":"string"},{"indexed":false,"internalType":"string","name":"_aadhar","type":"string"},{"indexed":false,"internalType":"uint256","name":"uptoQual","type":"uint256"}],"name":"studentCreated","type":"event"},{"anonymous":false,"inputs":[{"indexed":true,"internalType":"address","name":"owner","type":"address"},{"indexed":true,"internalType":"uint256","name":"course","type":"uint256"},{"indexed":true,"internalType":"uint256","name":"timestamp","type":"uint256"},{"indexed":false,"internalType":"address","name":"studentId","type":"address"},{"indexed":false,"internalType":"string","name":"name","type":"string"},{"indexed":false,"internalType":"string","name":"dob","type":"string"}],"name":"studentRegistered","type":"event"},{"inputs":[{"internalType":"string","name":"_name","type":"string"},{"internalType":"string","name":"_dob","type":"string"},{"internalType":"string","name":"_aadhar","type":"string"},{"internalType":"uint256","name":"uptoQual","type":"uint256"}],"name":"createStudentId","outputs":[],"stateMutability":"nonpayable","type":"function"},{"inputs":[{"internalType":"string","name":"","type":"string"}],"name":"record","outputs":[{"internalType":"address","name":"","type":"address"}],"stateMutability":"view","type":"function"},{"inputs":[{"internalType":"string","name":"_name","type":"string"},{"internalType":"string","name":"_dob","type":"string"},{"internalType":"uint256","name":"course","type":"uint256"},{"internalType":"string","name":"studentId","type":"string"}],"name":"register","outputs":[],"stateMutability":"nonpayable","type":"function"},{"inputs":[{"internalType":"uint256","name":"value","type":"uint256"}],"name":"toString","outputs":[{"internalType":"string","name":"","type":"string"}],"stateMutability":"pure","type":"function"}],"evm":{"bytecode":{"linkReferences":{},"object":"60806040526001805534801561001457600080fd5b506123b1806100246000396000f3fe60806040523480156200001157600080fd5b5060043610620000525760003560e01c80633ce4986a14620000575780636900a3ae1462000077578063e51ace1614620000ad578063fb0bc6a314620000e3575b600080fd5b6200007560048036038101906200006f919062000733565b62000103565b005b6200009560048036038101906200008f919062000802565b6200024a565b604051620000a49190620008bd565b60405180910390f35b620000cb6004803603810190620000c59190620008e1565b62000323565b604051620000da919062000977565b60405180910390f35b620001016004803603810190620000fb919062000994565b6200036c565b005b600084848484604051620001179062000574565b62000126949392919062000a74565b604051809103906000f08015801562000143573d6000803e3d6000fd5b5090506000620001556001546200024a565b9050816000826040516200016a919062000b18565b908152602001604051809103902060006101000a81548173ffffffffffffffffffffffffffffffffffffffff021916908373ffffffffffffffffffffffffffffffffffffffff16021790555083604051620001c6919062000b18565b60405180910390203373ffffffffffffffffffffffffffffffffffffffff167fa611355f49b51525f5446e5fdf7b54a3870500ab67810561ded0c6a4c43bde0083858a8a8a8a604051620002209695949392919062000b31565b60405180910390a3600160008154809291906200023d9062000be9565b9190505550505050505050565b6060600060016200025b8462000408565b01905060008167ffffffffffffffff8111156200027d576200027c620005b1565b5b6040519080825280601f01601f191660200182016040528015620002b05781602001600182028036833780820191505090505b509050600082602001820190505b60011562000318578080600190039150507f3031323334353637383961626364656600000000000000000000000000000000600a86061a8153600a85816200030b576200030a62000c36565b5b04945060008503620002be575b819350505050919050565b6000818051602081018201805184825260208301602085012081835280955050505050506000915054906101000a900473ffffffffffffffffffffffffffffffffffffffff1681565b42823373ffffffffffffffffffffffffffffffffffffffff167fe0e9755f397a0c9973fd6fd2b3f756f895febcd7a54adb11f0e96081e5256c6c600085604051620003b8919062000b18565b908152602001604051809103902060009054906101000a900473ffffffffffffffffffffffffffffffffffffffff168888604051620003fa9392919062000c65565b60405180910390a450505050565b600080600090507a184f03e93ff9f4daa797ed6e38ed64bf6a1f01000000000000000083106200046a577a184f03e93ff9f4daa797ed6e38ed64bf6a1f010000000000000000838162000460576200045f62000c36565b5b0492506040810190505b6d04ee2d6d415b85acef81000000008310620004ab576d04ee2d6d415b85acef81000000008381620004a157620004a062000c36565b5b0492506020810190505b662386f26fc100008310620004de57662386f26fc100008381620004d457620004d362000c36565b5b0492506010810190505b6305f5e10083106200050b576305f5e100838162000501576200050062000c36565b5b0492506008810190505b6127108310620005345761271083816200052a576200052962000c36565b5b0492506004810190505b606483106200055b576064838162000551576200055062000c36565b5b0492506002810190505b600a83106200056b576001810190505b80915050919050565b6116cb8062000cb183390190565b6000604051905090565b600080fd5b600080fd5b600080fd5b600080fd5b6000601f19601f8301169050919050565b7f4e487b7100000000000000000000000000000000000000000000000000000000600052604160045260246000fd5b620005eb82620005a0565b810181811067ffffffffffffffff821117156200060d576200060c620005b1565b5b80604052505050565b60006200062262000582565b9050620006308282620005e0565b919050565b600067ffffffffffffffff821115620006535762000652620005b1565b5b6200065e82620005a0565b9050602081019050919050565b82818337600083830152505050565b6000620006916200068b8462000635565b62000616565b905082815260208101848484011115620006b057620006af6200059b565b5b620006bd8482856200066b565b509392505050565b600082601f830112620006dd57620006dc62000596565b5b8135620006ef8482602086016200067a565b91505092915050565b6000819050919050565b6200070d81620006f8565b81146200071957600080fd5b50565b6000813590506200072d8162000702565b92915050565b6000806000806080858703121562000750576200074f6200058c565b5b600085013567ffffffffffffffff81111562000771576200077062000591565b5b6200077f87828801620006c5565b945050602085013567ffffffffffffffff811115620007a357620007a262000591565b5b620007b187828801620006c5565b935050604085013567ffffffffffffffff811115620007d557620007d462000591565b5b620007e387828801620006c5565b9250506060620007f6878288016200071c565b91505092959194509250565b6000602082840312156200081b576200081a6200058c565b5b60006200082b848285016200071c565b91505092915050565b600081519050919050565b600082825260208201905092915050565b60005b838110156200087057808201518184015260208101905062000853565b60008484015250505050565b6000620008898262000834565b6200089581856200083f565b9350620008a781856020860162000850565b620008b281620005a0565b840191505092915050565b60006020820190508181036000830152620008d981846200087c565b905092915050565b600060208284031215620008fa57620008f96200058c565b5b600082013567ffffffffffffffff8111156200091b576200091a62000591565b5b6200092984828501620006c5565b91505092915050565b600073ffffffffffffffffffffffffffffffffffffffff82169050919050565b60006200095f8262000932565b9050919050565b620009718162000952565b82525050565b60006020820190506200098e600083018462000966565b92915050565b60008060008060808587031215620009b157620009b06200058c565b5b600085013567ffffffffffffffff811115620009d257620009d162000591565b5b620009e087828801620006c5565b945050602085013567ffffffffffffffff81111562000a045762000a0362000591565b5b62000a1287828801620006c5565b935050604062000a25878288016200071c565b925050606085013567ffffffffffffffff81111562000a495762000a4862000591565b5b62000a5787828801620006c5565b91505092959194509250565b62000a6e81620006f8565b82525050565b6000608082019050818103600083015262000a9081876200087c565b9050818103602083015262000aa681866200087c565b9050818103604083015262000abc81856200087c565b905062000acd606083018462000a63565b95945050505050565b600081905092915050565b600062000aee8262000834565b62000afa818562000ad6565b935062000b0c81856020860162000850565b80840191505092915050565b600062000b26828462000ae1565b915081905092915050565b600060c082019050818103600083015262000b4d81896200087c565b905062000b5e602083018862000966565b818103604083015262000b7281876200087c565b9050818103606083015262000b8881866200087c565b9050818103608083015262000b9e81856200087c565b905062000baf60a083018462000a63565b979650505050505050565b7f4e487b7100000000000000000000000000000000000000000000000000000000600052601160045260246000fd5b600062000bf682620006f8565b91507fffffffffffffffffffffffffffffffffffffffffffffffffffffffffffffffff820362000c2b5762000c2a62000bba565b5b600182019050919050565b7f4e487b7100000000000000000000000000000000000000000000000000000000600052601260045260246000fd5b600060608201905062000c7c600083018662000966565b818103602083015262000c9081856200087c565b9050818103604083015262000ca681846200087c565b905094935050505056fe60806040523480156200001157600080fd5b50604051620016cb380380620016cb833981810160405281019062000037919062000287565b836000908162000048919062000597565b5082600190816200005a919062000597565b5081600290816200006c919062000597565b508060028111156200008357620000826200067e565b5b600360006101000a81548160ff02191690836002811115620000aa57620000a96200067e565b5b021790555050505050620006ad565b6000604051905090565b600080fd5b600080fd5b600080fd5b600080fd5b6000601f19601f8301169050919050565b7f4e487b7100000000000000000000000000000000000000000000000000000000600052604160045260246000fd5b6200012282620000d7565b810181811067ffffffffffffffff82111715620001445762000143620000e8565b5b80604052505050565b600062000159620000b9565b905062000167828262000117565b919050565b600067ffffffffffffffff8211156200018a5762000189620000e8565b5b6200019582620000d7565b9050602081019050919050565b60005b83811015620001c2578082015181840152602081019050620001a5565b60008484015250505050565b6000620001e5620001df846200016c565b6200014d565b905082815260208101848484011115620002045762000203620000d2565b5b62000211848285620001a2565b509392505050565b600082601f830112620002315762000230620000cd565b5b815162000243848260208601620001ce565b91505092915050565b6000819050919050565b62000261816200024c565b81146200026d57600080fd5b50565b600081519050620002818162000256565b92915050565b60008060008060808587031215620002a457620002a3620000c3565b5b600085015167ffffffffffffffff811115620002c557620002c4620000c8565b5b620002d38782880162000219565b945050602085015167ffffffffffffffff811115620002f757620002f6620000c8565b5b620003058782880162000219565b935050604085015167ffffffffffffffff811115620003295762000328620000c8565b5b620003378782880162000219565b92505060606200034a8782880162000270565b91505092959194509250565b600081519050919050565b7f4e487b7100000000000000000000000000000000000000000000000000000000600052602260045260246000fd5b60006002820490506001821680620003a957607f821691505b602082108103620003bf57620003be62000361565b5b50919050565b60008190508160005260206000209050919050565b60006020601f8301049050919050565b600082821b905092915050565b600060088302620004297fffffffffffffffffffffffffffffffffffffffffffffffffffffffffffffffff82620003ea565b620004358683620003ea565b95508019841693508086168417925050509392505050565b6000819050919050565b600062000478620004726200046c846200024c565b6200044d565b6200024c565b9050919050565b6000819050919050565b620004948362000457565b620004ac620004a3826200047f565b848454620003f7565b825550505050565b600090565b620004c3620004b4565b620004d081848462000489565b505050565b5b81811015620004f857620004ec600082620004b9565b600181019050620004d6565b5050565b601f82111562000547576200051181620003c5565b6200051c84620003da565b810160208510156200052c578190505b620005446200053b85620003da565b830182620004d5565b50505b505050565b600082821c905092915050565b60006200056c600019846008026200054c565b1980831691505092915050565b600062000587838362000559565b9150826002028217905092915050565b620005a28262000356565b67ffffffffffffffff811115620005be57620005bd620000e8565b5b620005ca825462000390565b620005d7828285620004fc565b600060209050601f8311600181146200060f5760008415620005fa578287015190505b62000606858262000579565b86555062000676565b601f1984166200061f86620003c5565b60005b82811015620006495784890151825560018201915060208501945060208101905062000622565b8683101562000669578489015162000665601f89168262000559565b8355505b6001600288020188555050505b505050505050565b7f4e487b7100000000000000000000000000000000000000000000000000000000600052602160045260246000fd5b61100e80620006bd6000396000f3fe60806040523480156200001157600080fd5b50600436106200005e5760003560e01c806306fdde031462000063578063166b005314620000855780633b2c22b014620000a75780638202e0be14620000c9578063f99ab8e214620000e9575b600080fd5b6200006d6200010b565b6040516200007c91906200041d565b60405180910390f35b6200008f620001a1565b6040516200009e91906200041d565b60405180910390f35b620000b162000237565b604051620000c09190620004c1565b60405180910390f35b620000e76004803603810190620000e191906200067e565b6200024a565b005b620000f3620002df565b6040516200010291906200041d565b60405180910390f35b600080546200011a9062000713565b80601f0160208091040260200160405190810160405280929190818152602001828054620001489062000713565b8015620001995780601f106200016d5761010080835404028352916020019162000199565b820191906000526020600020905b8154815290600101906020018083116200017b57829003601f168201915b505050505081565b60018054620001b09062000713565b80601f0160208091040260200160405190810160405280929190818152602001828054620001de9062000713565b80156200022f5780601f1062000203576101008083540402835291602001916200022f565b820191906000526020600020905b8154815290600101906020018083116200021157829003601f168201915b505050505081565b600360009054906101000a900460ff1681565b600082826040516200025c9062000375565b6200026992919062000759565b604051809103906000f08015801562000286573d6000803e3d6000fd5b509050828173ffffffffffffffffffffffffffffffffffffffff167f39f9e3293c6bb2c96e06f664ef81aa5212a7ca3546545238eb69a0cb60623bd584604051620002d291906200041d565b60405180910390a3505050565b60028054620002ee9062000713565b80601f01602080910402602001604051908101604052809291908181526020018280546200031c9062000713565b80156200036d5780601f1062000341576101008083540402835291602001916200036d565b820191906000526020600020905b8154815290600101906020018083116200034f57829003601f168201915b505050505081565b61084b806200078e83390190565b600081519050919050565b600082825260208201905092915050565b60005b83811015620003bf578082015181840152602081019050620003a2565b60008484015250505050565b6000601f19601f8301169050919050565b6000620003e98262000383565b620003f581856200038e565b9350620004078185602086016200039f565b6200041281620003cb565b840191505092915050565b60006020820190508181036000830152620004398184620003dc565b905092915050565b7f4e487b7100000000000000000000000000000000000000000000000000000000600052602160045260246000fd5b6003811062000484576200048362000441565b5b50565b6000819050620004978262000470565b919050565b6000620004a98262000487565b9050919050565b620004bb816200049c565b82525050565b6000602082019050620004d86000830184620004b0565b92915050565b6000604051905090565b600080fd5b600080fd5b6000819050919050565b6200050781620004f2565b81146200051357600080fd5b50565b6000813590506200052781620004fc565b92915050565b600080fd5b600080fd5b7f4e487b7100000000000000000000000000000000000000000000000000000000600052604160045260246000fd5b6200057182620003cb565b810181811067ffffffffffffffff8211171562000593576200059262000537565b5b80604052505050565b6000620005a8620004de565b9050620005b6828262000566565b919050565b600067ffffffffffffffff821115620005d957620005d862000537565b5b620005e482620003cb565b9050602081019050919050565b82818337600083830152505050565b6000620006176200061184620005bb565b6200059c565b90508281526020810184848401111562000636576200063562000532565b5b62000643848285620005f1565b509392505050565b600082601f8301126200066357620006626200052d565b5b81356200067584826020860162000600565b91505092915050565b60008060408385031215620006985762000697620004e8565b5b6000620006a88582860162000516565b925050602083013567ffffffffffffffff811115620006cc57620006cb620004ed565b5b620006da858286016200064b565b9150509250929050565b7f4e487b7100000000000000000000000000000000000000000000000000000000600052602260045260246000fd5b600060028204905060018216806200072c57607f821691505b602082108103620007425762000741620006e4565b5b50919050565b6200075381620004f2565b82525050565b600060408201905062000770600083018562000748565b8181036020830152620007848184620003dc565b9050939250505056fe60806040523480156200001157600080fd5b506040516200084b3803806200084b833981810160405281019062000037919062000226565b8160008190555080600190816200004f9190620004cd565b505050620005b4565b6000604051905090565b600080fd5b600080fd5b6000819050919050565b62000081816200006c565b81146200008d57600080fd5b50565b600081519050620000a18162000076565b92915050565b600080fd5b600080fd5b6000601f19601f8301169050919050565b7f4e487b7100000000000000000000000000000000000000000000000000000000600052604160045260246000fd5b620000fc82620000b1565b810181811067ffffffffffffffff821117156200011e576200011d620000c2565b5b80604052505050565b60006200013362000058565b9050620001418282620000f1565b919050565b600067ffffffffffffffff821115620001645762000163620000c2565b5b6200016f82620000b1565b9050602081019050919050565b60005b838110156200019c5780820151818401526020810190506200017f565b60008484015250505050565b6000620001bf620001b98462000146565b62000127565b905082815260208101848484011115620001de57620001dd620000ac565b5b620001eb8482856200017c565b509392505050565b600082601f8301126200020b576200020a620000a7565b5b81516200021d848260208601620001a8565b91505092915050565b6000806040838503121562000240576200023f62000062565b5b6000620002508582860162000090565b925050602083015167ffffffffffffffff81111562000274576200027362000067565b5b6200028285828601620001f3565b9150509250929050565b600081519050919050565b7f4e487b7100000000000000000000000000000000000000000000000000000000600052602260045260246000fd5b60006002820490506001821680620002df57607f821691505b602082108103620002f557620002f462000297565b5b50919050565b60008190508160005260206000209050919050565b60006020601f8301049050919050565b600082821b905092915050565b6000600883026200035f7fffffffffffffffffffffffffffffffffffffffffffffffffffffffffffffffff8262000320565b6200036b868362000320565b95508019841693508086168417925050509392505050565b6000819050919050565b6000620003ae620003a8620003a2846200006c565b62000383565b6200006c565b9050919050565b6000819050919050565b620003ca836200038d565b620003e2620003d982620003b5565b8484546200032d565b825550505050565b600090565b620003f9620003ea565b62000406818484620003bf565b505050565b5b818110156200042e5762000422600082620003ef565b6001810190506200040c565b5050565b601f8211156200047d576200044781620002fb565b620004528462000310565b8101602085101562000462578190505b6200047a620004718562000310565b8301826200040b565b50505b505050565b600082821c905092915050565b6000620004a26000198460080262000482565b1980831691505092915050565b6000620004bd83836200048f565b9150826002028217905092915050565b620004d8826200028c565b67ffffffffffffffff811115620004f457620004f3620000c2565b5b620005008254620002c6565b6200050d82828562000432565b600060209050601f83116001811462000545576000841562000530578287015190505b6200053c8582620004af565b865550620005ac565b601f1984166200055586620002fb565b60005b828110156200057f5784890151825560018201915060208501945060208101905062000558565b868310156200059f57848901516200059b601f8916826200048f565b8355505b6001600288020188555050505b505050505050565b61028780620005c46000396000f3fe608060405234801561001057600080fd5b50600436106100365760003560e01c80635600f04f1461003b578063dcf6359114610059575b600080fd5b610043610077565b604051610050919061019b565b60405180910390f35b610061610105565b60405161006e91906101d6565b60405180910390f35b6001805461008490610220565b80601f01602080910402602001604051908101604052809291908181526020018280546100b090610220565b80156100fd5780601f106100d2576101008083540402835291602001916100fd565b820191906000526020600020905b8154815290600101906020018083116100e057829003601f168201915b505050505081565b60005481565b600081519050919050565b600082825260208201905092915050565b60005b8381101561014557808201518184015260208101905061012a565b60008484015250505050565b6000601f19601f8301169050919050565b600061016d8261010b565b6101778185610116565b9350610187818560208601610127565b61019081610151565b840191505092915050565b600060208201905081810360008301526101b58184610162565b905092915050565b6000819050919050565b6101d0816101bd565b82525050565b60006020820190506101eb60008301846101c7565b92915050565b7f4e487b7100000000000000000000000000000000000000000000000000000000600052602260045260246000fd5b6000600282049050600182168061023857607f821691505b60208210810361024b5761024a6101f1565b5b5091905056fea26469706673582212208a61ecde7137953c21ad24171c6c5f5ab5e70eaf141b5f5dbc0871ca74ec02cb64736f6c63430008180033a26469706673582212202bd6d7fc387d47d2cc574c267ba7fab65453f5c842786013570ae8b7da0d1d6964736f6c63430008180033a26469706673582212204c002d0e16eedcda61969d0f793b709ef973166445905b7d4f525378a074451a64736f6c63430008180033","opcodes":"PUSH1 0x80 PUSH1 0x40 MSTORE PUSH1 0x1 DUP1 SSTORE CALLVALUE DUP1 ISZERO PUSH2 0x14 JUMPI PUSH1 0x0 DUP1 REVERT JUMPDEST POP PUSH2 0x23B1 DUP1 PUSH2 0x24 PUSH1 0x0 CODECOPY PUSH1 0x0 RETURN INVALID PUSH1 0x80 PUSH1 0x40 MSTORE CALLVALUE DUP1 ISZERO PUSH3 0x11 JUMPI PUSH1 0x0 DUP1 REVERT JUMPDEST POP PUSH1 0x4 CALLDATASIZE LT PUSH3 0x52 JUMPI PUSH1 0x0 CALLDATALOAD PUSH1 0xE0 SHR DUP1 PUSH4 0x3CE4986A EQ PUSH3 0x57 JUMPI DUP1 PUSH4 0x6900A3AE EQ PUSH3 0x77 JUMPI DUP1 PUSH4 0xE51ACE16 EQ PUSH3 0xAD JUMPI DUP1 PUSH4 0xFB0BC6A3 EQ PUSH3 0xE3 JUMPI JUMPDEST PUSH1 0x0 DUP1 REVERT JUMPDEST PUSH3 0x75 PUSH1 0x4 DUP1 CALLDATASIZE SUB DUP2 ADD SWAP1 PUSH3 0x6F SWAP2 SWAP1 PUSH3 0x733 JUMP JUMPDEST PUSH3 0x103 JUMP JUMPDEST STOP JUMPDEST PUSH3 0x95 PUSH1 0x4 DUP1 CALLDATASIZE SUB DUP2 ADD SWAP1 PUSH3 0x8F SWAP2 SWAP1 PUSH3 0x802 JUMP JUMPDEST PUSH3 0x24A JUMP JUMPDEST PUSH1 0x40 MLOAD PUSH3 0xA4 SWAP2 SWAP1 PUSH3 0x8BD JUMP JUMPDEST PUSH1 0x40 MLOAD DUP1 SWAP2 SUB SWAP1 RETURN JUMPDEST PUSH3 0xCB PUSH1 0x4 DUP1 CALLDATASIZE SUB DUP2 ADD SWAP1 PUSH3 0xC5 SWAP2 SWAP1 PUSH3 0x8E1 JUMP JUMPDEST PUSH3 0x323 JUMP JUMPDEST PUSH1 0x40 MLOAD PUSH3 0xDA SWAP2 SWAP1 PUSH3 0x977 JUMP JUMPDEST PUSH1 0x40 MLOAD DUP1 SWAP2 SUB SWAP1 RETURN JUMPDEST PUSH3 0x101 PUSH1 0x4 DUP1 CALLDATASIZE SUB DUP2 ADD SWAP1 PUSH3 0xFB SWAP2 SWAP1 PUSH3 0x994 JUMP JUMPDEST PUSH3 0x36C JUMP JUMPDEST STOP JUMPDEST PUSH1 0x0 DUP5 DUP5 DUP5 DUP5 PUSH1 0x40 MLOAD PUSH3 0x117 SWAP1 PUSH3 0x574 JUMP JUMPDEST PUSH3 0x126 SWAP5 SWAP4 SWAP3 SWAP2 SWAP1 PUSH3 0xA74 JUMP JUMPDEST PUSH1 0x40 MLOAD DUP1 SWAP2 SUB SWAP1 PUSH1 0x0 CREATE DUP1 ISZERO DUP1 ISZERO PUSH3 0x143 JUMPI RETURNDATASIZE PUSH1 0x0 DUP1 RETURNDATACOPY RETURNDATASIZE PUSH1 0x0 REVERT JUMPDEST POP SWAP1 POP PUSH1 0x0 PUSH3 0x155 PUSH1 0x1 SLOAD PUSH3 0x24A JUMP JUMPDEST SWAP1 POP DUP2 PUSH1 0x0 DUP3 PUSH1 0x40 MLOAD PUSH3 0x16A SWAP2 SWAP1 PUSH3 0xB18 JUMP JUMPDEST SWAP1 DUP2 MSTORE PUSH1 0x20 ADD PUSH1 0x40 MLOAD DUP1 SWAP2 SUB SWAP1 KECCAK256 PUSH1 0x0 PUSH2 0x100 EXP DUP2 SLOAD DUP2 PUSH20 0xFFFFFFFFFFFFFFFFFFFFFFFFFFFFFFFFFFFFFFFF MUL NOT AND SWAP1 DUP4 PUSH20 0xFFFFFFFFFFFFFFFFFFFFFFFFFFFFFFFFFFFFFFFF AND MUL OR SWAP1 SSTORE POP DUP4 PUSH1 0x40 MLOAD PUSH3 0x1C6 SWAP2 SWAP1 PUSH3 0xB18 JUMP JUMPDEST PUSH1 0x40 MLOAD DUP1 SWAP2 SUB SWAP1 KECCAK256 CALLER PUSH20 0xFFFFFFFFFFFFFFFFFFFFFFFFFFFFFFFFFFFFFFFF AND PUSH32 0xA611355F49B51525F5446E5FDF7B54A3870500AB67810561DED0C6A4C43BDE00 DUP4 DUP6 DUP11 DUP11 DUP11 DUP11 PUSH1 0x40 MLOAD PUSH3 0x220 SWAP7 SWAP6 SWAP5 SWAP4 SWAP3 SWAP2 SWAP1 PUSH3 0xB31 JUMP JUMPDEST PUSH1 0x40 MLOAD DUP1 SWAP2 SUB SWAP1 LOG3 PUSH1 0x1 PUSH1 0x0 DUP2 SLOAD DUP1 SWAP3 SWAP2 SWAP1 PUSH3 0x23D SWAP1 PUSH3 0xBE9 JUMP JUMPDEST SWAP2 SWAP1 POP SSTORE POP POP POP POP POP POP POP JUMP JUMPDEST PUSH1 0x60 PUSH1 0x0 PUSH1 0x1 PUSH3 0x25B DUP5 PUSH3 0x408 JUMP JUMPDEST ADD SWAP1 POP PUSH1 0x0 DUP2 PUSH8 0xFFFFFFFFFFFFFFFF DUP2 GT ISZERO PUSH3 0x27D JUMPI PUSH3 0x27C PUSH3 0x5B1 JUMP JUMPDEST JUMPDEST PUSH1 0x40 MLOAD SWAP1 DUP1 DUP3 MSTORE DUP1 PUSH1 0x1F ADD PUSH1 0x1F NOT AND PUSH1 0x20 ADD DUP3 ADD PUSH1 0x40 MSTORE DUP1 ISZERO PUSH3 0x2B0 JUMPI DUP2 PUSH1 0x20 ADD PUSH1 0x1 DUP3 MUL DUP1 CALLDATASIZE DUP4 CALLDATACOPY DUP1 DUP3 ADD SWAP2 POP POP SWAP1 POP JUMPDEST POP SWAP1 POP PUSH1 0x0 DUP3 PUSH1 0x20 ADD DUP3 ADD SWAP1 POP JUMPDEST PUSH1 0x1 ISZERO PUSH3 0x318 JUMPI DUP1 DUP1 PUSH1 0x1 SWAP1 SUB SWAP2 POP POP PUSH32 0x3031323334353637383961626364656600000000000000000000000000000000 PUSH1 0xA DUP7 MOD BYTE DUP2 MSTORE8 PUSH1 0xA DUP6 DUP2 PUSH3 0x30B JUMPI PUSH3 0x30A PUSH3 0xC36 JUMP JUMPDEST JUMPDEST DIV SWAP5 POP PUSH1 0x0 DUP6 SUB PUSH3 0x2BE JUMPI JUMPDEST DUP2 SWAP4 POP POP POP POP SWAP2 SWAP1 POP JUMP JUMPDEST PUSH1 0x0 DUP2 DUP1 MLOAD PUSH1 0x20 DUP2 ADD DUP3 ADD DUP1 MLOAD DUP5 DUP3 MSTORE PUSH1 0x20 DUP4 ADD PUSH1 0x20 DUP6 ADD KECCAK256 DUP2 DUP4 MSTORE DUP1 SWAP6 POP POP POP POP POP POP PUSH1 0x0 SWAP2 POP SLOAD SWAP1 PUSH2 0x100 EXP SWAP1 DIV PUSH20 0xFFFFFFFFFFFFFFFFFFFFFFFFFFFFFFFFFFFFFFFF AND DUP2 JUMP JUMPDEST TIMESTAMP DUP3 CALLER PUSH20 0xFFFFFFFFFFFFFFFFFFFFFFFFFFFFFFFFFFFFFFFF AND PUSH32 0xE0E9755F397A0C9973FD6FD2B3F756F895FEBCD7A54ADB11F0E96081E5256C6C PUSH1 0x0 DUP6 PUSH1 0x40 MLOAD PUSH3 0x3B8 SWAP2 SWAP1 PUSH3 0xB18 JUMP JUMPDEST SWAP1 DUP2 MSTORE PUSH1 0x20 ADD PUSH1 0x40 MLOAD DUP1 SWAP2 SUB SWAP1 KECCAK256 PUSH1 0x0 SWAP1 SLOAD SWAP1 PUSH2 0x100 EXP SWAP1 DIV PUSH20 0xFFFFFFFFFFFFFFFFFFFFFFFFFFFFFFFFFFFFFFFF AND DUP9 DUP9 PUSH1 0x40 MLOAD PUSH3 0x3FA SWAP4 SWAP3 SWAP2 SWAP1 PUSH3 0xC65 JUMP JUMPDEST PUSH1 0x40 MLOAD DUP1 SWAP2 SUB SWAP1 LOG4 POP POP POP POP JUMP JUMPDEST PUSH1 0x0 DUP1 PUSH1 0x0 SWAP1 POP PUSH27 0x184F03E93FF9F4DAA797ED6E38ED64BF6A1F010000000000000000 DUP4 LT PUSH3 0x46A JUMPI PUSH27 0x184F03E93FF9F4DAA797ED6E38ED64BF6A1F010000000000000000 DUP4 DUP2 PUSH3 0x460 JUMPI PUSH3 0x45F PUSH3 0xC36 JUMP JUMPDEST JUMPDEST DIV SWAP3 POP PUSH1 0x40 DUP2 ADD SWAP1 POP JUMPDEST PUSH14 0x4EE2D6D415B85ACEF8100000000 DUP4 LT PUSH3 0x4AB JUMPI PUSH14 0x4EE2D6D415B85ACEF8100000000 DUP4 DUP2 PUSH3 0x4A1 JUMPI PUSH3 0x4A0 PUSH3 0xC36 JUMP JUMPDEST JUMPDEST DIV SWAP3 POP PUSH1 0x20 DUP2 ADD SWAP1 POP JUMPDEST PUSH7 0x2386F26FC10000 DUP4 LT PUSH3 0x4DE JUMPI PUSH7 0x2386F26FC10000 DUP4 DUP2 PUSH3 0x4D4 JUMPI PUSH3 0x4D3 PUSH3 0xC36 JUMP JUMPDEST JUMPDEST DIV SWAP3 POP PUSH1 0x10 DUP2 ADD SWAP1 POP JUMPDEST PUSH4 0x5F5E100 DUP4 LT PUSH3 0x50B JUMPI PUSH4 0x5F5E100 DUP4 DUP2 PUSH3 0x501 JUMPI PUSH3 0x500 PUSH3 0xC36 JUMP JUMPDEST JUMPDEST DIV SWAP3 POP PUSH1 0x8 DUP2 ADD SWAP1 POP JUMPDEST PUSH2 0x2710 DUP4 LT PUSH3 0x534 JUMPI PUSH2 0x2710 DUP4 DUP2 PUSH3 0x52A JUMPI PUSH3 0x529 PUSH3 0xC36 JUMP JUMPDEST JUMPDEST DIV SWAP3 POP PUSH1 0x4 DUP2 ADD SWAP1 POP JUMPDEST PUSH1 0x64 DUP4 LT PUSH3 0x55B JUMPI PUSH1 0x64 DUP4 DUP2 PUSH3 0x551 JUMPI PUSH3 0x550 PUSH3 0xC36 JUMP JUMPDEST JUMPDEST DIV SWAP3 POP PUSH1 0x2 DUP2 ADD SWAP1 POP JUMPDEST PUSH1 0xA DUP4 LT PUSH3 0x56B JUMPI PUSH1 0x1 DUP2 ADD SWAP1 POP JUMPDEST DUP1 SWAP2 POP POP SWAP2 SWAP1 POP JUMP JUMPDEST PUSH2 0x16CB DUP1 PUSH3 0xCB1 DUP4 CODECOPY ADD SWAP1 JUMP JUMPDEST PUSH1 0x0 PUSH1 0x40 MLOAD SWAP1 POP SWAP1 JUMP JUMPDEST PUSH1 0x0 DUP1 REVERT JUMPDEST PUSH1 0x0 DUP1 REVERT JUMPDEST PUSH1 0x0 DUP1 REVERT JUMPDEST PUSH1 0x0 DUP1 REVERT JUMPDEST PUSH1 0x0 PUSH1 0x1F NOT PUSH1 0x1F DUP4 ADD AND SWAP1 POP SWAP2 SWAP1 POP JUMP JUMPDEST PUSH32 0x4E487B7100000000000000000000000000000000000000000000000000000000 PUSH1 0x0 MSTORE PUSH1 0x41 PUSH1 0x4 MSTORE PUSH1 0x24 PUSH1 0x0 REVERT JUMPDEST PUSH3 0x5EB DUP3 PUSH3 0x5A0 JUMP JUMPDEST DUP2 ADD DUP2 DUP2 LT PUSH8 0xFFFFFFFFFFFFFFFF DUP3 GT OR ISZERO PUSH3 0x60D JUMPI PUSH3 0x60C PUSH3 0x5B1 JUMP JUMPDEST JUMPDEST DUP1 PUSH1 0x40 MSTORE POP POP POP JUMP JUMPDEST PUSH1 0x0 PUSH3 0x622 PUSH3 0x582 JUMP JUMPDEST SWAP1 POP PUSH3 0x630 DUP3 DUP3 PUSH3 0x5E0 JUMP JUMPDEST SWAP2 SWAP1 POP JUMP JUMPDEST PUSH1 0x0 PUSH8 0xFFFFFFFFFFFFFFFF DUP3 GT ISZERO PUSH3 0x653 JUMPI PUSH3 0x652 PUSH3 0x5B1 JUMP JUMPDEST JUMPDEST PUSH3 0x65E DUP3 PUSH3 0x5A0 JUMP JUMPDEST SWAP1 POP PUSH1 0x20 DUP2 ADD SWAP1 POP SWAP2 SWAP1 POP JUMP JUMPDEST DUP3 DUP2 DUP4 CALLDATACOPY PUSH1 0x0 DUP4 DUP4 ADD MSTORE POP POP POP JUMP JUMPDEST PUSH1 0x0 PUSH3 0x691 PUSH3 0x68B DUP5 PUSH3 0x635 JUMP JUMPDEST PUSH3 0x616 JUMP JUMPDEST SWAP1 POP DUP3 DUP2 MSTORE PUSH1 0x20 DUP2 ADD DUP5 DUP5 DUP5 ADD GT ISZERO PUSH3 0x6B0 JUMPI PUSH3 0x6AF PUSH3 0x59B JUMP JUMPDEST JUMPDEST PUSH3 0x6BD DUP5 DUP3 DUP6 PUSH3 0x66B JUMP JUMPDEST POP SWAP4 SWAP3 POP POP POP JUMP JUMPDEST PUSH1 0x0 DUP3 PUSH1 0x1F DUP4 ADD SLT PUSH3 0x6DD JUMPI PUSH3 0x6DC PUSH3 0x596 JUMP JUMPDEST JUMPDEST DUP2 CALLDATALOAD PUSH3 0x6EF DUP5 DUP3 PUSH1 0x20 DUP7 ADD PUSH3 0x67A JUMP JUMPDEST SWAP2 POP POP SWAP3 SWAP2 POP POP JUMP JUMPDEST PUSH1 0x0 DUP2 SWAP1 POP SWAP2 SWAP1 POP JUMP JUMPDEST PUSH3 0x70D DUP2 PUSH3 0x6F8 JUMP JUMPDEST DUP2 EQ PUSH3 0x719 JUMPI PUSH1 0x0 DUP1 REVERT JUMPDEST POP JUMP JUMPDEST PUSH1 0x0 DUP2 CALLDATALOAD SWAP1 POP PUSH3 0x72D DUP2 PUSH3 0x702 JUMP JUMPDEST SWAP3 SWAP2 POP POP JUMP JUMPDEST PUSH1 0x0 DUP1 PUSH1 0x0 DUP1 PUSH1 0x80 DUP6 DUP8 SUB SLT ISZERO PUSH3 0x750 JUMPI PUSH3 0x74F PUSH3 0x58C JUMP JUMPDEST JUMPDEST PUSH1 0x0 DUP6 ADD CALLDATALOAD PUSH8 0xFFFFFFFFFFFFFFFF DUP2 GT ISZERO PUSH3 0x771 JUMPI PUSH3 0x770 PUSH3 0x591 JUMP JUMPDEST JUMPDEST PUSH3 0x77F DUP8 DUP3 DUP9 ADD PUSH3 0x6C5 JUMP JUMPDEST SWAP5 POP POP PUSH1 0x20 DUP6 ADD CALLDATALOAD PUSH8 0xFFFFFFFFFFFFFFFF DUP2 GT ISZERO PUSH3 0x7A3 JUMPI PUSH3 0x7A2 PUSH3 0x591 JUMP JUMPDEST JUMPDEST PUSH3 0x7B1 DUP8 DUP3 DUP9 ADD PUSH3 0x6C5 JUMP JUMPDEST SWAP4 POP POP PUSH1 0x40 DUP6 ADD CALLDATALOAD PUSH8 0xFFFFFFFFFFFFFFFF DUP2 GT ISZERO PUSH3 0x7D5 JUMPI PUSH3 0x7D4 PUSH3 0x591 JUMP JUMPDEST JUMPDEST PUSH3 0x7E3 DUP8 DUP3 DUP9 ADD PUSH3 0x6C5 JUMP JUMPDEST SWAP3 POP POP PUSH1 0x60 PUSH3 0x7F6 DUP8 DUP3 DUP9 ADD PUSH3 0x71C JUMP JUMPDEST SWAP2 POP POP SWAP3 SWAP6 SWAP2 SWAP5 POP SWAP3 POP JUMP JUMPDEST PUSH1 0x0 PUSH1 0x20 DUP3 DUP5 SUB SLT ISZERO PUSH3 0x81B JUMPI PUSH3 0x81A PUSH3 0x58C JUMP JUMPDEST JUMPDEST PUSH1 0x0 PUSH3 0x82B DUP5 DUP3 DUP6 ADD PUSH3 0x71C JUMP JUMPDEST SWAP2 POP POP SWAP3 SWAP2 POP POP JUMP JUMPDEST PUSH1 0x0 DUP2 MLOAD SWAP1 POP SWAP2 SWAP1 POP JUMP JUMPDEST PUSH1 0x0 DUP3 DUP3 MSTORE PUSH1 0x20 DUP3 ADD SWAP1 POP SWAP3 SWAP2 POP POP JUMP JUMPDEST PUSH1 0x0 JUMPDEST DUP4 DUP2 LT ISZERO PUSH3 0x870 JUMPI DUP1 DUP3 ADD MLOAD DUP2 DUP5 ADD MSTORE PUSH1 0x20 DUP2 ADD SWAP1 POP PUSH3 0x853 JUMP JUMPDEST PUSH1 0x0 DUP5 DUP5 ADD MSTORE POP POP POP POP JUMP JUMPDEST PUSH1 0x0 PUSH3 0x889 DUP3 PUSH3 0x834 JUMP JUMPDEST PUSH3 0x895 DUP2 DUP6 PUSH3 0x83F JUMP JUMPDEST SWAP4 POP PUSH3 0x8A7 DUP2 DUP6 PUSH1 0x20 DUP7 ADD PUSH3 0x850 JUMP JUMPDEST PUSH3 0x8B2 DUP2 PUSH3 0x5A0 JUMP JUMPDEST DUP5 ADD SWAP2 POP POP SWAP3 SWAP2 POP POP JUMP JUMPDEST PUSH1 0x0 PUSH1 0x20 DUP3 ADD SWAP1 POP DUP2 DUP2 SUB PUSH1 0x0 DUP4 ADD MSTORE PUSH3 0x8D9 DUP2 DUP5 PUSH3 0x87C JUMP JUMPDEST SWAP1 POP SWAP3 SWAP2 POP POP JUMP JUMPDEST PUSH1 0x0 PUSH1 0x20 DUP3 DUP5 SUB SLT ISZERO PUSH3 0x8FA JUMPI PUSH3 0x8F9 PUSH3 0x58C JUMP JUMPDEST JUMPDEST PUSH1 0x0 DUP3 ADD CALLDATALOAD PUSH8 0xFFFFFFFFFFFFFFFF DUP2 GT ISZERO PUSH3 0x91B JUMPI PUSH3 0x91A PUSH3 0x591 JUMP JUMPDEST JUMPDEST PUSH3 0x929 DUP5 DUP3 DUP6 ADD PUSH3 0x6C5 JUMP JUMPDEST SWAP2 POP POP SWAP3 SWAP2 POP POP JUMP JUMPDEST PUSH1 0x0 PUSH20 0xFFFFFFFFFFFFFFFFFFFFFFFFFFFFFFFFFFFFFFFF DUP3 AND SWAP1 POP SWAP2 SWAP1 POP JUMP JUMPDEST PUSH1 0x0 PUSH3 0x95F DUP3 PUSH3 0x932 JUMP JUMPDEST SWAP1 POP SWAP2 SWAP1 POP JUMP JUMPDEST PUSH3 0x971 DUP2 PUSH3 0x952 JUMP JUMPDEST DUP3 MSTORE POP POP JUMP JUMPDEST PUSH1 0x0 PUSH1 0x20 DUP3 ADD SWAP1 POP PUSH3 0x98E PUSH1 0x0 DUP4 ADD DUP5 PUSH3 0x966 JUMP JUMPDEST SWAP3 SWAP2 POP POP JUMP JUMPDEST PUSH1 0x0 DUP1 PUSH1 0x0 DUP1 PUSH1 0x80 DUP6 DUP8 SUB SLT ISZERO PUSH3 0x9B1 JUMPI PUSH3 0x9B0 PUSH3 0x58C JUMP JUMPDEST JUMPDEST PUSH1 0x0 DUP6 ADD CALLDATALOAD PUSH8 0xFFFFFFFFFFFFFFFF DUP2 GT ISZERO PUSH3 0x9D2 JUMPI PUSH3 0x9D1 PUSH3 0x591 JUMP JUMPDEST JUMPDEST PUSH3 0x9E0 DUP8 DUP3 DUP9 ADD PUSH3 0x6C5 JUMP JUMPDEST SWAP5 POP POP PUSH1 0x20 DUP6 ADD CALLDATALOAD PUSH8 0xFFFFFFFFFFFFFFFF DUP2 GT ISZERO PUSH3 0xA04 JUMPI PUSH3 0xA03 PUSH3 0x591 JUMP JUMPDEST JUMPDEST PUSH3 0xA12 DUP8 DUP3 DUP9 ADD PUSH3 0x6C5 JUMP JUMPDEST SWAP4 POP POP PUSH1 0x40 PUSH3 0xA25 DUP8 DUP3 DUP9 ADD PUSH3 0x71C JUMP JUMPDEST SWAP3 POP POP PUSH1 0x60 DUP6 ADD CALLDATALOAD PUSH8 0xFFFFFFFFFFFFFFFF DUP2 GT ISZERO PUSH3 0xA49 JUMPI PUSH3 0xA48 PUSH3 0x591 JUMP JUMPDEST JUMPDEST PUSH3 0xA57 DUP8 DUP3 DUP9 ADD PUSH3 0x6C5 JUMP JUMPDEST SWAP2 POP POP SWAP3 SWAP6 SWAP2 SWAP5 POP SWAP3 POP JUMP JUMPDEST PUSH3 0xA6E DUP2 PUSH3 0x6F8 JUMP JUMPDEST DUP3 MSTORE POP POP JUMP JUMPDEST PUSH1 0x0 PUSH1 0x80 DUP3 ADD SWAP1 POP DUP2 DUP2 SUB PUSH1 0x0 DUP4 ADD MSTORE PUSH3 0xA90 DUP2 DUP8 PUSH3 0x87C JUMP JUMPDEST SWAP1 POP DUP2 DUP2 SUB PUSH1 0x20 DUP4 ADD MSTORE PUSH3 0xAA6 DUP2 DUP7 PUSH3 0x87C JUMP JUMPDEST SWAP1 POP DUP2 DUP2 SUB PUSH1 0x40 DUP4 ADD MSTORE PUSH3 0xABC DUP2 DUP6 PUSH3 0x87C JUMP JUMPDEST SWAP1 POP PUSH3 0xACD PUSH1 0x60 DUP4 ADD DUP5 PUSH3 0xA63 JUMP JUMPDEST SWAP6 SWAP5 POP POP POP POP POP JUMP JUMPDEST PUSH1 0x0 DUP2 SWAP1 POP SWAP3 SWAP2 POP POP JUMP JUMPDEST PUSH1 0x0 PUSH3 0xAEE DUP3 PUSH3 0x834 JUMP JUMPDEST PUSH3 0xAFA DUP2 DUP6 PUSH3 0xAD6 JUMP JUMPDEST SWAP4 POP PUSH3 0xB0C DUP2 DUP6 PUSH1 0x20 DUP7 ADD PUSH3 0x850 JUMP JUMPDEST DUP1 DUP5 ADD SWAP2 POP POP SWAP3 SWAP2 POP POP JUMP JUMPDEST PUSH1 0x0 PUSH3 0xB26 DUP3 DUP5 PUSH3 0xAE1 JUMP JUMPDEST SWAP2 POP DUP2 SWAP1 POP SWAP3 SWAP2 POP POP JUMP JUMPDEST PUSH1 0x0 PUSH1 0xC0 DUP3 ADD SWAP1 POP DUP2 DUP2 SUB PUSH1 0x0 DUP4 ADD MSTORE PUSH3 0xB4D DUP2 DUP10 PUSH3 0x87C JUMP JUMPDEST SWAP1 POP PUSH3 0xB5E PUSH1 0x20 DUP4 ADD DUP9 PUSH3 0x966 JUMP JUMPDEST DUP2 DUP2 SUB PUSH1 0x40 DUP4 ADD MSTORE PUSH3 0xB72 DUP2 DUP8 PUSH3 0x87C JUMP JUMPDEST SWAP1 POP DUP2 DUP2 SUB PUSH1 0x60 DUP4 ADD MSTORE PUSH3 0xB88 DUP2 DUP7 PUSH3 0x87C JUMP JUMPDEST SWAP1 POP DUP2 DUP2 SUB PUSH1 0x80 DUP4 ADD MSTORE PUSH3 0xB9E DUP2 DUP6 PUSH3 0x87C JUMP JUMPDEST SWAP1 POP PUSH3 0xBAF PUSH1 0xA0 DUP4 ADD DUP5 PUSH3 0xA63 JUMP JUMPDEST SWAP8 SWAP7 POP POP POP POP POP POP POP JUMP JUMPDEST PUSH32 0x4E487B7100000000000000000000000000000000000000000000000000000000 PUSH1 0x0 MSTORE PUSH1 0x11 PUSH1 0x4 MSTORE PUSH1 0x24 PUSH1 0x0 REVERT JUMPDEST PUSH1 0x0 PUSH3 0xBF6 DUP3 PUSH3 0x6F8 JUMP JUMPDEST SWAP2 POP PUSH32 0xFFFFFFFFFFFFFFFFFFFFFFFFFFFFFFFFFFFFFFFFFFFFFFFFFFFFFFFFFFFFFFFF DUP3 SUB PUSH3 0xC2B JUMPI PUSH3 0xC2A PUSH3 0xBBA JUMP JUMPDEST JUMPDEST PUSH1 0x1 DUP3 ADD SWAP1 POP SWAP2 SWAP1 POP JUMP JUMPDEST PUSH32 0x4E487B7100000000000000000000000000000000000000000000000000000000 PUSH1 0x0 MSTORE PUSH1 0x12 PUSH1 0x4 MSTORE PUSH1 0x24 PUSH1 0x0 REVERT JUMPDEST PUSH1 0x0 PUSH1 0x60 DUP3 ADD SWAP1 POP PUSH3 0xC7C PUSH1 0x0 DUP4 ADD DUP7 PUSH3 0x966 JUMP JUMPDEST DUP2 DUP2 SUB PUSH1 0x20 DUP4 ADD MSTORE PUSH3 0xC90 DUP2 DUP6 PUSH3 0x87C JUMP JUMPDEST SWAP1 POP DUP2 DUP2 SUB PUSH1 0x40 DUP4 ADD MSTORE PUSH3 0xCA6 DUP2 DUP5 PUSH3 0x87C JUMP JUMPDEST SWAP1 POP SWAP5 SWAP4 POP POP POP POP JUMP INVALID PUSH1 0x80 PUSH1 0x40 MSTORE CALLVALUE DUP1 ISZERO PUSH3 0x11 JUMPI PUSH1 0x0 DUP1 REVERT JUMPDEST POP PUSH1 0x40 MLOAD PUSH3 0x16CB CODESIZE SUB DUP1 PUSH3 0x16CB DUP4 CODECOPY DUP2 DUP2 ADD PUSH1 0x40 MSTORE DUP2 ADD SWAP1 PUSH3 0x37 SWAP2 SWAP1 PUSH3 0x287 JUMP JUMPDEST DUP4 PUSH1 0x0 SWAP1 DUP2 PUSH3 0x48 SWAP2 SWAP1 PUSH3 0x597 JUMP JUMPDEST POP DUP3 PUSH1 0x1 SWAP1 DUP2 PUSH3 0x5A SWAP2 SWAP1 PUSH3 0x597 JUMP JUMPDEST POP DUP2 PUSH1 0x2 SWAP1 DUP2 PUSH3 0x6C SWAP2 SWAP1 PUSH3 0x597 JUMP JUMPDEST POP DUP1 PUSH1 0x2 DUP2 GT ISZERO PUSH3 0x83 JUMPI PUSH3 0x82 PUSH3 0x67E JUMP JUMPDEST JUMPDEST PUSH1 0x3 PUSH1 0x0 PUSH2 0x100 EXP DUP2 SLOAD DUP2 PUSH1 0xFF MUL NOT AND SWAP1 DUP4 PUSH1 0x2 DUP2 GT ISZERO PUSH3 0xAA JUMPI PUSH3 0xA9 PUSH3 0x67E JUMP JUMPDEST JUMPDEST MUL OR SWAP1 SSTORE POP POP POP POP POP PUSH3 0x6AD JUMP JUMPDEST PUSH1 0x0 PUSH1 0x40 MLOAD SWAP1 POP SWAP1 JUMP JUMPDEST PUSH1 0x0 DUP1 REVERT JUMPDEST PUSH1 0x0 DUP1 REVERT JUMPDEST PUSH1 0x0 DUP1 REVERT JUMPDEST PUSH1 0x0 DUP1 REVERT JUMPDEST PUSH1 0x0 PUSH1 0x1F NOT PUSH1 0x1F DUP4 ADD AND SWAP1 POP SWAP2 SWAP1 POP JUMP JUMPDEST PUSH32 0x4E487B7100000000000000000000000000000000000000000000000000000000 PUSH1 0x0 MSTORE PUSH1 0x41 PUSH1 0x4 MSTORE PUSH1 0x24 PUSH1 0x0 REVERT JUMPDEST PUSH3 0x122 DUP3 PUSH3 0xD7 JUMP JUMPDEST DUP2 ADD DUP2 DUP2 LT PUSH8 0xFFFFFFFFFFFFFFFF DUP3 GT OR ISZERO PUSH3 0x144 JUMPI PUSH3 0x143 PUSH3 0xE8 JUMP JUMPDEST JUMPDEST DUP1 PUSH1 0x40 MSTORE POP POP POP JUMP JUMPDEST PUSH1 0x0 PUSH3 0x159 PUSH3 0xB9 JUMP JUMPDEST SWAP1 POP PUSH3 0x167 DUP3 DUP3 PUSH3 0x117 JUMP JUMPDEST SWAP2 SWAP1 POP JUMP JUMPDEST PUSH1 0x0 PUSH8 0xFFFFFFFFFFFFFFFF DUP3 GT ISZERO PUSH3 0x18A JUMPI PUSH3 0x189 PUSH3 0xE8 JUMP JUMPDEST JUMPDEST PUSH3 0x195 DUP3 PUSH3 0xD7 JUMP JUMPDEST SWAP1 POP PUSH1 0x20 DUP2 ADD SWAP1 POP SWAP2 SWAP1 POP JUMP JUMPDEST PUSH1 0x0 JUMPDEST DUP4 DUP2 LT ISZERO PUSH3 0x1C2 JUMPI DUP1 DUP3 ADD MLOAD DUP2 DUP5 ADD MSTORE PUSH1 0x20 DUP2 ADD SWAP1 POP PUSH3 0x1A5 JUMP JUMPDEST PUSH1 0x0 DUP5 DUP5 ADD MSTORE POP POP POP POP JUMP JUMPDEST PUSH1 0x0 PUSH3 0x1E5 PUSH3 0x1DF DUP5 PUSH3 0x16C JUMP JUMPDEST PUSH3 0x14D JUMP JUMPDEST SWAP1 POP DUP3 DUP2 MSTORE PUSH1 0x20 DUP2 ADD DUP5 DUP5 DUP5 ADD GT ISZERO PUSH3 0x204 JUMPI PUSH3 0x203 PUSH3 0xD2 JUMP JUMPDEST JUMPDEST PUSH3 0x211 DUP5 DUP3 DUP6 PUSH3 0x1A2 JUMP JUMPDEST POP SWAP4 SWAP3 POP POP POP JUMP JUMPDEST PUSH1 0x0 DUP3 PUSH1 0x1F DUP4 ADD SLT PUSH3 0x231 JUMPI PUSH3 0x230 PUSH3 0xCD JUMP JUMPDEST JUMPDEST DUP2 MLOAD PUSH3 0x243 DUP5 DUP3 PUSH1 0x20 DUP7 ADD PUSH3 0x1CE JUMP JUMPDEST SWAP2 POP POP SWAP3 SWAP2 POP POP JUMP JUMPDEST PUSH1 0x0 DUP2 SWAP1 POP SWAP2 SWAP1 POP JUMP JUMPDEST PUSH3 0x261 DUP2 PUSH3 0x24C JUMP JUMPDEST DUP2 EQ PUSH3 0x26D JUMPI PUSH1 0x0 DUP1 REVERT JUMPDEST POP JUMP JUMPDEST PUSH1 0x0 DUP2 MLOAD SWAP1 POP PUSH3 0x281 DUP2 PUSH3 0x256 JUMP JUMPDEST SWAP3 SWAP2 POP POP JUMP JUMPDEST PUSH1 0x0 DUP1 PUSH1 0x0 DUP1 PUSH1 0x80 DUP6 DUP8 SUB SLT ISZERO PUSH3 0x2A4 JUMPI PUSH3 0x2A3 PUSH3 0xC3 JUMP JUMPDEST JUMPDEST PUSH1 0x0 DUP6 ADD MLOAD PUSH8 0xFFFFFFFFFFFFFFFF DUP2 GT ISZERO PUSH3 0x2C5 JUMPI PUSH3 0x2C4 PUSH3 0xC8 JUMP JUMPDEST JUMPDEST PUSH3 0x2D3 DUP8 DUP3 DUP9 ADD PUSH3 0x219 JUMP JUMPDEST SWAP5 POP POP PUSH1 0x20 DUP6 ADD MLOAD PUSH8 0xFFFFFFFFFFFFFFFF DUP2 GT ISZERO PUSH3 0x2F7 JUMPI PUSH3 0x2F6 PUSH3 0xC8 JUMP JUMPDEST JUMPDEST PUSH3 0x305 DUP8 DUP3 DUP9 ADD PUSH3 0x219 JUMP JUMPDEST SWAP4 POP POP PUSH1 0x40 DUP6 ADD MLOAD PUSH8 0xFFFFFFFFFFFFFFFF DUP2 GT ISZERO PUSH3 0x329 JUMPI PUSH3 0x328 PUSH3 0xC8 JUMP JUMPDEST JUMPDEST PUSH3 0x337 DUP8 DUP3 DUP9 ADD PUSH3 0x219 JUMP JUMPDEST SWAP3 POP POP PUSH1 0x60 PUSH3 0x34A DUP8 DUP3 DUP9 ADD PUSH3 0x270 JUMP JUMPDEST SWAP2 POP POP SWAP3 SWAP6 SWAP2 SWAP5 POP SWAP3 POP JUMP JUMPDEST PUSH1 0x0 DUP2 MLOAD SWAP1 POP SWAP2 SWAP1 POP JUMP JUMPDEST PUSH32 0x4E487B7100000000000000000000000000000000000000000000000000000000 PUSH1 0x0 MSTORE PUSH1 0x22 PUSH1 0x4 MSTORE PUSH1 0x24 PUSH1 0x0 REVERT JUMPDEST PUSH1 0x0 PUSH1 0x2 DUP3 DIV SWAP1 POP PUSH1 0x1 DUP3 AND DUP1 PUSH3 0x3A9 JUMPI PUSH1 0x7F DUP3 AND SWAP2 POP JUMPDEST PUSH1 0x20 DUP3 LT DUP2 SUB PUSH3 0x3BF JUMPI PUSH3 0x3BE PUSH3 0x361 JUMP JUMPDEST JUMPDEST POP SWAP2 SWAP1 POP JUMP JUMPDEST PUSH1 0x0 DUP2 SWAP1 POP DUP2 PUSH1 0x0 MSTORE PUSH1 0x20 PUSH1 0x0 KECCAK256 SWAP1 POP SWAP2 SWAP1 POP JUMP JUMPDEST PUSH1 0x0 PUSH1 0x20 PUSH1 0x1F DUP4 ADD DIV SWAP1 POP SWAP2 SWAP1 POP JUMP JUMPDEST PUSH1 0x0 DUP3 DUP3 SHL SWAP1 POP SWAP3 SWAP2 POP POP JUMP JUMPDEST PUSH1 0x0 PUSH1 0x8 DUP4 MUL PUSH3 0x429 PUSH32 0xFFFFFFFFFFFFFFFFFFFFFFFFFFFFFFFFFFFFFFFFFFFFFFFFFFFFFFFFFFFFFFFF DUP3 PUSH3 0x3EA JUMP JUMPDEST PUSH3 0x435 DUP7 DUP4 PUSH3 0x3EA JUMP JUMPDEST SWAP6 POP DUP1 NOT DUP5 AND SWAP4 POP DUP1 DUP7 AND DUP5 OR SWAP3 POP POP POP SWAP4 SWAP3 POP POP POP JUMP JUMPDEST PUSH1 0x0 DUP2 SWAP1 POP SWAP2 SWAP1 POP JUMP JUMPDEST PUSH1 0x0 PUSH3 0x478 PUSH3 0x472 PUSH3 0x46C DUP5 PUSH3 0x24C JUMP JUMPDEST PUSH3 0x44D JUMP JUMPDEST PUSH3 0x24C JUMP JUMPDEST SWAP1 POP SWAP2 SWAP1 POP JUMP JUMPDEST PUSH1 0x0 DUP2 SWAP1 POP SWAP2 SWAP1 POP JUMP JUMPDEST PUSH3 0x494 DUP4 PUSH3 0x457 JUMP JUMPDEST PUSH3 0x4AC PUSH3 0x4A3 DUP3 PUSH3 0x47F JUMP JUMPDEST DUP5 DUP5 SLOAD PUSH3 0x3F7 JUMP JUMPDEST DUP3 SSTORE POP POP POP POP JUMP JUMPDEST PUSH1 0x0 SWAP1 JUMP JUMPDEST PUSH3 0x4C3 PUSH3 0x4B4 JUMP JUMPDEST PUSH3 0x4D0 DUP2 DUP5 DUP5 PUSH3 0x489 JUMP JUMPDEST POP POP POP JUMP JUMPDEST JUMPDEST DUP2 DUP2 LT ISZERO PUSH3 0x4F8 JUMPI PUSH3 0x4EC PUSH1 0x0 DUP3 PUSH3 0x4B9 JUMP JUMPDEST PUSH1 0x1 DUP2 ADD SWAP1 POP PUSH3 0x4D6 JUMP JUMPDEST POP POP JUMP JUMPDEST PUSH1 0x1F DUP3 GT ISZERO PUSH3 0x547 JUMPI PUSH3 0x511 DUP2 PUSH3 0x3C5 JUMP JUMPDEST PUSH3 0x51C DUP5 PUSH3 0x3DA JUMP JUMPDEST DUP2 ADD PUSH1 0x20 DUP6 LT ISZERO PUSH3 0x52C JUMPI DUP2 SWAP1 POP JUMPDEST PUSH3 0x544 PUSH3 0x53B DUP6 PUSH3 0x3DA JUMP JUMPDEST DUP4 ADD DUP3 PUSH3 0x4D5 JUMP JUMPDEST POP POP JUMPDEST POP POP POP JUMP JUMPDEST PUSH1 0x0 DUP3 DUP3 SHR SWAP1 POP SWAP3 SWAP2 POP POP JUMP JUMPDEST PUSH1 0x0 PUSH3 0x56C PUSH1 0x0 NOT DUP5 PUSH1 0x8 MUL PUSH3 0x54C JUMP JUMPDEST NOT DUP1 DUP4 AND SWAP2 POP POP SWAP3 SWAP2 POP POP JUMP JUMPDEST PUSH1 0x0 PUSH3 0x587 DUP4 DUP4 PUSH3 0x559 JUMP JUMPDEST SWAP2 POP DUP3 PUSH1 0x2 MUL DUP3 OR SWAP1 POP SWAP3 SWAP2 POP POP JUMP JUMPDEST PUSH3 0x5A2 DUP3 PUSH3 0x356 JUMP JUMPDEST PUSH8 0xFFFFFFFFFFFFFFFF DUP2 GT ISZERO PUSH3 0x5BE JUMPI PUSH3 0x5BD PUSH3 0xE8 JUMP JUMPDEST JUMPDEST PUSH3 0x5CA DUP3 SLOAD PUSH3 0x390 JUMP JUMPDEST PUSH3 0x5D7 DUP3 DUP3 DUP6 PUSH3 0x4FC JUMP JUMPDEST PUSH1 0x0 PUSH1 0x20 SWAP1 POP PUSH1 0x1F DUP4 GT PUSH1 0x1 DUP2 EQ PUSH3 0x60F JUMPI PUSH1 0x0 DUP5 ISZERO PUSH3 0x5FA JUMPI DUP3 DUP8 ADD MLOAD SWAP1 POP JUMPDEST PUSH3 0x606 DUP6 DUP3 PUSH3 0x579 JUMP JUMPDEST DUP7 SSTORE POP PUSH3 0x676 JUMP JUMPDEST PUSH1 0x1F NOT DUP5 AND PUSH3 0x61F DUP7 PUSH3 0x3C5 JUMP JUMPDEST PUSH1 0x0 JUMPDEST DUP3 DUP2 LT ISZERO PUSH3 0x649 JUMPI DUP5 DUP10 ADD MLOAD DUP3 SSTORE PUSH1 0x1 DUP3 ADD SWAP2 POP PUSH1 0x20 DUP6 ADD SWAP5 POP PUSH1 0x20 DUP2 ADD SWAP1 POP PUSH3 0x622 JUMP JUMPDEST DUP7 DUP4 LT ISZERO PUSH3 0x669 JUMPI DUP5 DUP10 ADD MLOAD PUSH3 0x665 PUSH1 0x1F DUP10 AND DUP3 PUSH3 0x559 JUMP JUMPDEST DUP4 SSTORE POP JUMPDEST PUSH1 0x1 PUSH1 0x2 DUP9 MUL ADD DUP9 SSTORE POP POP POP JUMPDEST POP POP POP POP POP POP JUMP JUMPDEST PUSH32 0x4E487B7100000000000000000000000000000000000000000000000000000000 PUSH1 0x0 MSTORE PUSH1 0x21 PUSH1 0x4 MSTORE PUSH1 0x24 PUSH1 0x0 REVERT JUMPDEST PUSH2 0x100E DUP1 PUSH3 0x6BD PUSH1 0x0 CODECOPY PUSH1 0x0 RETURN INVALID PUSH1 0x80 PUSH1 0x40 MSTORE CALLVALUE DUP1 ISZERO PUSH3 0x11 JUMPI PUSH1 0x0 DUP1 REVERT JUMPDEST POP PUSH1 0x4 CALLDATASIZE LT PUSH3 0x5E JUMPI PUSH1 0x0 CALLDATALOAD PUSH1 0xE0 SHR DUP1 PUSH4 0x6FDDE03 EQ PUSH3 0x63 JUMPI DUP1 PUSH4 0x166B0053 EQ PUSH3 0x85 JUMPI DUP1 PUSH4 0x3B2C22B0 EQ PUSH3 0xA7 JUMPI DUP1 PUSH4 0x8202E0BE EQ PUSH3 0xC9 JUMPI DUP1 PUSH4 0xF99AB8E2 EQ PUSH3 0xE9 JUMPI JUMPDEST PUSH1 0x0 DUP1 REVERT JUMPDEST PUSH3 0x6D PUSH3 0x10B JUMP JUMPDEST PUSH1 0x40 MLOAD PUSH3 0x7C SWAP2 SWAP1 PUSH3 0x41D JUMP JUMPDEST PUSH1 0x40 MLOAD DUP1 SWAP2 SUB SWAP1 RETURN JUMPDEST PUSH3 0x8F PUSH3 0x1A1 JUMP JUMPDEST PUSH1 0x40 MLOAD PUSH3 0x9E SWAP2 SWAP1 PUSH3 0x41D JUMP JUMPDEST PUSH1 0x40 MLOAD DUP1 SWAP2 SUB SWAP1 RETURN JUMPDEST PUSH3 0xB1 PUSH3 0x237 JUMP JUMPDEST PUSH1 0x40 MLOAD PUSH3 0xC0 SWAP2 SWAP1 PUSH3 0x4C1 JUMP JUMPDEST PUSH1 0x40 MLOAD DUP1 SWAP2 SUB SWAP1 RETURN JUMPDEST PUSH3 0xE7 PUSH1 0x4 DUP1 CALLDATASIZE SUB DUP2 ADD SWAP1 PUSH3 0xE1 SWAP2 SWAP1 PUSH3 0x67E JUMP JUMPDEST PUSH3 0x24A JUMP JUMPDEST STOP JUMPDEST PUSH3 0xF3 PUSH3 0x2DF JUMP JUMPDEST PUSH1 0x40 MLOAD PUSH3 0x102 SWAP2 SWAP1 PUSH3 0x41D JUMP JUMPDEST PUSH1 0x40 MLOAD DUP1 SWAP2 SUB SWAP1 RETURN JUMPDEST PUSH1 0x0 DUP1 SLOAD PUSH3 0x11A SWAP1 PUSH3 0x713 JUMP JUMPDEST DUP1 PUSH1 0x1F ADD PUSH1 0x20 DUP1 SWAP2 DIV MUL PUSH1 0x20 ADD PUSH1 0x40 MLOAD SWAP1 DUP2 ADD PUSH1 0x40 MSTORE DUP1 SWAP3 SWAP2 SWAP1 DUP2 DUP2 MSTORE PUSH1 0x20 ADD DUP3 DUP1 SLOAD PUSH3 0x148 SWAP1 PUSH3 0x713 JUMP JUMPDEST DUP1 ISZERO PUSH3 0x199 JUMPI DUP1 PUSH1 0x1F LT PUSH3 0x16D JUMPI PUSH2 0x100 DUP1 DUP4 SLOAD DIV MUL DUP4 MSTORE SWAP2 PUSH1 0x20 ADD SWAP2 PUSH3 0x199 JUMP JUMPDEST DUP3 ADD SWAP2 SWAP1 PUSH1 0x0 MSTORE PUSH1 0x20 PUSH1 0x0 KECCAK256 SWAP1 JUMPDEST DUP2 SLOAD DUP2 MSTORE SWAP1 PUSH1 0x1 ADD SWAP1 PUSH1 0x20 ADD DUP1 DUP4 GT PUSH3 0x17B JUMPI DUP3 SWAP1 SUB PUSH1 0x1F AND DUP3 ADD SWAP2 JUMPDEST POP POP POP POP POP DUP2 JUMP JUMPDEST PUSH1 0x1 DUP1 SLOAD PUSH3 0x1B0 SWAP1 PUSH3 0x713 JUMP JUMPDEST DUP1 PUSH1 0x1F ADD PUSH1 0x20 DUP1 SWAP2 DIV MUL PUSH1 0x20 ADD PUSH1 0x40 MLOAD SWAP1 DUP2 ADD PUSH1 0x40 MSTORE DUP1 SWAP3 SWAP2 SWAP1 DUP2 DUP2 MSTORE PUSH1 0x20 ADD DUP3 DUP1 SLOAD PUSH3 0x1DE SWAP1 PUSH3 0x713 JUMP JUMPDEST DUP1 ISZERO PUSH3 0x22F JUMPI DUP1 PUSH1 0x1F LT PUSH3 0x203 JUMPI PUSH2 0x100 DUP1 DUP4 SLOAD DIV MUL DUP4 MSTORE SWAP2 PUSH1 0x20 ADD SWAP2 PUSH3 0x22F JUMP JUMPDEST DUP3 ADD SWAP2 SWAP1 PUSH1 0x0 MSTORE PUSH1 0x20 PUSH1 0x0 KECCAK256 SWAP1 JUMPDEST DUP2 SLOAD DUP2 MSTORE SWAP1 PUSH1 0x1 ADD SWAP1 PUSH1 0x20 ADD DUP1 DUP4 GT PUSH3 0x211 JUMPI DUP3 SWAP1 SUB PUSH1 0x1F AND DUP3 ADD SWAP2 JUMPDEST POP POP POP POP POP DUP2 JUMP JUMPDEST PUSH1 0x3 PUSH1 0x0 SWAP1 SLOAD SWAP1 PUSH2 0x100 EXP SWAP1 DIV PUSH1 0xFF AND DUP2 JUMP JUMPDEST PUSH1 0x0 DUP3 DUP3 PUSH1 0x40 MLOAD PUSH3 0x25C SWAP1 PUSH3 0x375 JUMP JUMPDEST PUSH3 0x269 SWAP3 SWAP2 SWAP1 PUSH3 0x759 JUMP JUMPDEST PUSH1 0x40 MLOAD DUP1 SWAP2 SUB SWAP1 PUSH1 0x0 CREATE DUP1 ISZERO DUP1 ISZERO PUSH3 0x286 JUMPI RETURNDATASIZE PUSH1 0x0 DUP1 RETURNDATACOPY RETURNDATASIZE PUSH1 0x0 REVERT JUMPDEST POP SWAP1 POP DUP3 DUP2 PUSH20 0xFFFFFFFFFFFFFFFFFFFFFFFFFFFFFFFFFFFFFFFF AND PUSH32 0x39F9E3293C6BB2C96E06F664EF81AA5212A7CA3546545238EB69A0CB60623BD5 DUP5 PUSH1 0x40 MLOAD PUSH3 0x2D2 SWAP2 SWAP1 PUSH3 0x41D JUMP JUMPDEST PUSH1 0x40 MLOAD DUP1 SWAP2 SUB SWAP1 LOG3 POP POP POP JUMP JUMPDEST PUSH1 0x2 DUP1 SLOAD PUSH3 0x2EE SWAP1 PUSH3 0x713 JUMP JUMPDEST DUP1 PUSH1 0x1F ADD PUSH1 0x20 DUP1 SWAP2 DIV MUL PUSH1 0x20 ADD PUSH1 0x40 MLOAD SWAP1 DUP2 ADD PUSH1 0x40 MSTORE DUP1 SWAP3 SWAP2 SWAP1 DUP2 DUP2 MSTORE PUSH1 0x20 ADD DUP3 DUP1 SLOAD PUSH3 0x31C SWAP1 PUSH3 0x713 JUMP JUMPDEST DUP1 ISZERO PUSH3 0x36D JUMPI DUP1 PUSH1 0x1F LT PUSH3 0x341 JUMPI PUSH2 0x100 DUP1 DUP4 SLOAD DIV MUL DUP4 MSTORE SWAP2 PUSH1 0x20 ADD SWAP2 PUSH3 0x36D JUMP JUMPDEST DUP3 ADD SWAP2 SWAP1 PUSH1 0x0 MSTORE PUSH1 0x20 PUSH1 0x0 KECCAK256 SWAP1 JUMPDEST DUP2 SLOAD DUP2 MSTORE SWAP1 PUSH1 0x1 ADD SWAP1 PUSH1 0x20 ADD DUP1 DUP4 GT PUSH3 0x34F JUMPI DUP3 SWAP1 SUB PUSH1 0x1F AND DUP3 ADD SWAP2 JUMPDEST POP POP POP POP POP DUP2 JUMP JUMPDEST PUSH2 0x84B DUP1 PUSH3 0x78E DUP4 CODECOPY ADD SWAP1 JUMP JUMPDEST PUSH1 0x0 DUP2 MLOAD SWAP1 POP SWAP2 SWAP1 POP JUMP JUMPDEST PUSH1 0x0 DUP3 DUP3 MSTORE PUSH1 0x20 DUP3 ADD SWAP1 POP SWAP3 SWAP2 POP POP JUMP JUMPDEST PUSH1 0x0 JUMPDEST DUP4 DUP2 LT ISZERO PUSH3 0x3BF JUMPI DUP1 DUP3 ADD MLOAD DUP2 DUP5 ADD MSTORE PUSH1 0x20 DUP2 ADD SWAP1 POP PUSH3 0x3A2 JUMP JUMPDEST PUSH1 0x0 DUP5 DUP5 ADD MSTORE POP POP POP POP JUMP JUMPDEST PUSH1 0x0 PUSH1 0x1F NOT PUSH1 0x1F DUP4 ADD AND SWAP1 POP SWAP2 SWAP1 POP JUMP JUMPDEST PUSH1 0x0 PUSH3 0x3E9 DUP3 PUSH3 0x383 JUMP JUMPDEST PUSH3 0x3F5 DUP2 DUP6 PUSH3 0x38E JUMP JUMPDEST SWAP4 POP PUSH3 0x407 DUP2 DUP6 PUSH1 0x20 DUP7 ADD PUSH3 0x39F JUMP JUMPDEST PUSH3 0x412 DUP2 PUSH3 0x3CB JUMP JUMPDEST DUP5 ADD SWAP2 POP POP SWAP3 SWAP2 POP POP JUMP JUMPDEST PUSH1 0x0 PUSH1 0x20 DUP3 ADD SWAP1 POP DUP2 DUP2 SUB PUSH1 0x0 DUP4 ADD MSTORE PUSH3 0x439 DUP2 DUP5 PUSH3 0x3DC JUMP JUMPDEST SWAP1 POP SWAP3 SWAP2 POP POP JUMP JUMPDEST PUSH32 0x4E487B7100000000000000000000000000000000000000000000000000000000 PUSH1 0x0 MSTORE PUSH1 0x21 PUSH1 0x4 MSTORE PUSH1 0x24 PUSH1 0x0 REVERT JUMPDEST PUSH1 0x3 DUP2 LT PUSH3 0x484 JUMPI PUSH3 0x483 PUSH3 0x441 JUMP JUMPDEST JUMPDEST POP JUMP JUMPDEST PUSH1 0x0 DUP2 SWAP1 POP PUSH3 0x497 DUP3 PUSH3 0x470 JUMP JUMPDEST SWAP2 SWAP1 POP JUMP JUMPDEST PUSH1 0x0 PUSH3 0x4A9 DUP3 PUSH3 0x487 JUMP JUMPDEST SWAP1 POP SWAP2 SWAP1 POP JUMP JUMPDEST PUSH3 0x4BB DUP2 PUSH3 0x49C JUMP JUMPDEST DUP3 MSTORE POP POP JUMP JUMPDEST PUSH1 0x0 PUSH1 0x20 DUP3 ADD SWAP1 POP PUSH3 0x4D8 PUSH1 0x0 DUP4 ADD DUP5 PUSH3 0x4B0 JUMP JUMPDEST SWAP3 SWAP2 POP POP JUMP JUMPDEST PUSH1 0x0 PUSH1 0x40 MLOAD SWAP1 POP SWAP1 JUMP JUMPDEST PUSH1 0x0 DUP1 REVERT JUMPDEST PUSH1 0x0 DUP1 REVERT JUMPDEST PUSH1 0x0 DUP2 SWAP1 POP SWAP2 SWAP1 POP JUMP JUMPDEST PUSH3 0x507 DUP2 PUSH3 0x4F2 JUMP JUMPDEST DUP2 EQ PUSH3 0x513 JUMPI PUSH1 0x0 DUP1 REVERT JUMPDEST POP JUMP JUMPDEST PUSH1 0x0 DUP2 CALLDATALOAD SWAP1 POP PUSH3 0x527 DUP2 PUSH3 0x4FC JUMP JUMPDEST SWAP3 SWAP2 POP POP JUMP JUMPDEST PUSH1 0x0 DUP1 REVERT JUMPDEST PUSH1 0x0 DUP1 REVERT JUMPDEST PUSH32 0x4E487B7100000000000000000000000000000000000000000000000000000000 PUSH1 0x0 MSTORE PUSH1 0x41 PUSH1 0x4 MSTORE PUSH1 0x24 PUSH1 0x0 REVERT JUMPDEST PUSH3 0x571 DUP3 PUSH3 0x3CB JUMP JUMPDEST DUP2 ADD DUP2 DUP2 LT PUSH8 0xFFFFFFFFFFFFFFFF DUP3 GT OR ISZERO PUSH3 0x593 JUMPI PUSH3 0x592 PUSH3 0x537 JUMP JUMPDEST JUMPDEST DUP1 PUSH1 0x40 MSTORE POP POP POP JUMP JUMPDEST PUSH1 0x0 PUSH3 0x5A8 PUSH3 0x4DE JUMP JUMPDEST SWAP1 POP PUSH3 0x5B6 DUP3 DUP3 PUSH3 0x566 JUMP JUMPDEST SWAP2 SWAP1 POP JUMP JUMPDEST PUSH1 0x0 PUSH8 0xFFFFFFFFFFFFFFFF DUP3 GT ISZERO PUSH3 0x5D9 JUMPI PUSH3 0x5D8 PUSH3 0x537 JUMP JUMPDEST JUMPDEST PUSH3 0x5E4 DUP3 PUSH3 0x3CB JUMP JUMPDEST SWAP1 POP PUSH1 0x20 DUP2 ADD SWAP1 POP SWAP2 SWAP1 POP JUMP JUMPDEST DUP3 DUP2 DUP4 CALLDATACOPY PUSH1 0x0 DUP4 DUP4 ADD MSTORE POP POP POP JUMP JUMPDEST PUSH1 0x0 PUSH3 0x617 PUSH3 0x611 DUP5 PUSH3 0x5BB JUMP JUMPDEST PUSH3 0x59C JUMP JUMPDEST SWAP1 POP DUP3 DUP2 MSTORE PUSH1 0x20 DUP2 ADD DUP5 DUP5 DUP5 ADD GT ISZERO PUSH3 0x636 JUMPI PUSH3 0x635 PUSH3 0x532 JUMP JUMPDEST JUMPDEST PUSH3 0x643 DUP5 DUP3 DUP6 PUSH3 0x5F1 JUMP JUMPDEST POP SWAP4 SWAP3 POP POP POP JUMP JUMPDEST PUSH1 0x0 DUP3 PUSH1 0x1F DUP4 ADD SLT PUSH3 0x663 JUMPI PUSH3 0x662 PUSH3 0x52D JUMP JUMPDEST JUMPDEST DUP2 CALLDATALOAD PUSH3 0x675 DUP5 DUP3 PUSH1 0x20 DUP7 ADD PUSH3 0x600 JUMP JUMPDEST SWAP2 POP POP SWAP3 SWAP2 POP POP JUMP JUMPDEST PUSH1 0x0 DUP1 PUSH1 0x40 DUP4 DUP6 SUB SLT ISZERO PUSH3 0x698 JUMPI PUSH3 0x697 PUSH3 0x4E8 JUMP JUMPDEST JUMPDEST PUSH1 0x0 PUSH3 0x6A8 DUP6 DUP3 DUP7 ADD PUSH3 0x516 JUMP JUMPDEST SWAP3 POP POP PUSH1 0x20 DUP4 ADD CALLDATALOAD PUSH8 0xFFFFFFFFFFFFFFFF DUP2 GT ISZERO PUSH3 0x6CC JUMPI PUSH3 0x6CB PUSH3 0x4ED JUMP JUMPDEST JUMPDEST PUSH3 0x6DA DUP6 DUP3 DUP7 ADD PUSH3 0x64B JUMP JUMPDEST SWAP2 POP POP SWAP3 POP SWAP3 SWAP1 POP JUMP JUMPDEST PUSH32 0x4E487B7100000000000000000000000000000000000000000000000000000000 PUSH1 0x0 MSTORE PUSH1 0x22 PUSH1 0x4 MSTORE PUSH1 0x24 PUSH1 0x0 REVERT JUMPDEST PUSH1 0x0 PUSH1 0x2 DUP3 DIV SWAP1 POP PUSH1 0x1 DUP3 AND DUP1 PUSH3 0x72C JUMPI PUSH1 0x7F DUP3 AND SWAP2 POP JUMPDEST PUSH1 0x20 DUP3 LT DUP2 SUB PUSH3 0x742 JUMPI PUSH3 0x741 PUSH3 0x6E4 JUMP JUMPDEST JUMPDEST POP SWAP2 SWAP1 POP JUMP JUMPDEST PUSH3 0x753 DUP2 PUSH3 0x4F2 JUMP JUMPDEST DUP3 MSTORE POP POP JUMP JUMPDEST PUSH1 0x0 PUSH1 0x40 DUP3 ADD SWAP1 POP PUSH3 0x770 PUSH1 0x0 DUP4 ADD DUP6 PUSH3 0x748 JUMP JUMPDEST DUP2 DUP2 SUB PUSH1 0x20 DUP4 ADD MSTORE PUSH3 0x784 DUP2 DUP5 PUSH3 0x3DC JUMP JUMPDEST SWAP1 POP SWAP4 SWAP3 POP POP POP JUMP INVALID PUSH1 0x80 PUSH1 0x40 MSTORE CALLVALUE DUP1 ISZERO PUSH3 0x11 JUMPI PUSH1 0x0 DUP1 REVERT JUMPDEST POP PUSH1 0x40 MLOAD PUSH3 0x84B CODESIZE SUB DUP1 PUSH3 0x84B DUP4 CODECOPY DUP2 DUP2 ADD PUSH1 0x40 MSTORE DUP2 ADD SWAP1 PUSH3 0x37 SWAP2 SWAP1 PUSH3 0x226 JUMP JUMPDEST DUP2 PUSH1 0x0 DUP2 SWAP1 SSTORE POP DUP1 PUSH1 0x1 SWAP1 DUP2 PUSH3 0x4F SWAP2 SWAP1 PUSH3 0x4CD JUMP JUMPDEST POP POP POP PUSH3 0x5B4 JUMP JUMPDEST PUSH1 0x0 PUSH1 0x40 MLOAD SWAP1 POP SWAP1 JUMP JUMPDEST PUSH1 0x0 DUP1 REVERT JUMPDEST PUSH1 0x0 DUP1 REVERT JUMPDEST PUSH1 0x0 DUP2 SWAP1 POP SWAP2 SWAP1 POP JUMP JUMPDEST PUSH3 0x81 DUP2 PUSH3 0x6C JUMP JUMPDEST DUP2 EQ PUSH3 0x8D JUMPI PUSH1 0x0 DUP1 REVERT JUMPDEST POP JUMP JUMPDEST PUSH1 0x0 DUP2 MLOAD SWAP1 POP PUSH3 0xA1 DUP2 PUSH3 0x76 JUMP JUMPDEST SWAP3 SWAP2 POP POP JUMP JUMPDEST PUSH1 0x0 DUP1 REVERT JUMPDEST PUSH1 0x0 DUP1 REVERT JUMPDEST PUSH1 0x0 PUSH1 0x1F NOT PUSH1 0x1F DUP4 ADD AND SWAP1 POP SWAP2 SWAP1 POP JUMP JUMPDEST PUSH32 0x4E487B7100000000000000000000000000000000000000000000000000000000 PUSH1 0x0 MSTORE PUSH1 0x41 PUSH1 0x4 MSTORE PUSH1 0x24 PUSH1 0x0 REVERT JUMPDEST PUSH3 0xFC DUP3 PUSH3 0xB1 JUMP JUMPDEST DUP2 ADD DUP2 DUP2 LT PUSH8 0xFFFFFFFFFFFFFFFF DUP3 GT OR ISZERO PUSH3 0x11E JUMPI PUSH3 0x11D PUSH3 0xC2 JUMP JUMPDEST JUMPDEST DUP1 PUSH1 0x40 MSTORE POP POP POP JUMP JUMPDEST PUSH1 0x0 PUSH3 0x133 PUSH3 0x58 JUMP JUMPDEST SWAP1 POP PUSH3 0x141 DUP3 DUP3 PUSH3 0xF1 JUMP JUMPDEST SWAP2 SWAP1 POP JUMP JUMPDEST PUSH1 0x0 PUSH8 0xFFFFFFFFFFFFFFFF DUP3 GT ISZERO PUSH3 0x164 JUMPI PUSH3 0x163 PUSH3 0xC2 JUMP JUMPDEST JUMPDEST PUSH3 0x16F DUP3 PUSH3 0xB1 JUMP JUMPDEST SWAP1 POP PUSH1 0x20 DUP2 ADD SWAP1 POP SWAP2 SWAP1 POP JUMP JUMPDEST PUSH1 0x0 JUMPDEST DUP4 DUP2 LT ISZERO PUSH3 0x19C JUMPI DUP1 DUP3 ADD MLOAD DUP2 DUP5 ADD MSTORE PUSH1 0x20 DUP2 ADD SWAP1 POP PUSH3 0x17F JUMP JUMPDEST PUSH1 0x0 DUP5 DUP5 ADD MSTORE POP POP POP POP JUMP JUMPDEST PUSH1 0x0 PUSH3 0x1BF PUSH3 0x1B9 DUP5 PUSH3 0x146 JUMP JUMPDEST PUSH3 0x127 JUMP JUMPDEST SWAP1 POP DUP3 DUP2 MSTORE PUSH1 0x20 DUP2 ADD DUP5 DUP5 DUP5 ADD GT ISZERO PUSH3 0x1DE JUMPI PUSH3 0x1DD PUSH3 0xAC JUMP JUMPDEST JUMPDEST PUSH3 0x1EB DUP5 DUP3 DUP6 PUSH3 0x17C JUMP JUMPDEST POP SWAP4 SWAP3 POP POP POP JUMP JUMPDEST PUSH1 0x0 DUP3 PUSH1 0x1F DUP4 ADD SLT PUSH3 0x20B JUMPI PUSH3 0x20A PUSH3 0xA7 JUMP JUMPDEST JUMPDEST DUP2 MLOAD PUSH3 0x21D DUP5 DUP3 PUSH1 0x20 DUP7 ADD PUSH3 0x1A8 JUMP JUMPDEST SWAP2 POP POP SWAP3 SWAP2 POP POP JUMP JUMPDEST PUSH1 0x0 DUP1 PUSH1 0x40 DUP4 DUP6 SUB SLT ISZERO PUSH3 0x240 JUMPI PUSH3 0x23F PUSH3 0x62 JUMP JUMPDEST JUMPDEST PUSH1 0x0 PUSH3 0x250 DUP6 DUP3 DUP7 ADD PUSH3 0x90 JUMP JUMPDEST SWAP3 POP POP PUSH1 0x20 DUP4 ADD MLOAD PUSH8 0xFFFFFFFFFFFFFFFF DUP2 GT ISZERO PUSH3 0x274 JUMPI PUSH3 0x273 PUSH3 0x67 JUMP JUMPDEST JUMPDEST PUSH3 0x282 DUP6 DUP3 DUP7 ADD PUSH3 0x1F3 JUMP JUMPDEST SWAP2 POP POP SWAP3 POP SWAP3 SWAP1 POP JUMP JUMPDEST PUSH1 0x0 DUP2 MLOAD SWAP1 POP SWAP2 SWAP1 POP JUMP JUMPDEST PUSH32 0x4E487B7100000000000000000000000000000000000000000000000000000000 PUSH1 0x0 MSTORE PUSH1 0x22 PUSH1 0x4 MSTORE PUSH1 0x24 PUSH1 0x0 REVERT JUMPDEST PUSH1 0x0 PUSH1 0x2 DUP3 DIV SWAP1 POP PUSH1 0x1 DUP3 AND DUP1 PUSH3 0x2DF JUMPI PUSH1 0x7F DUP3 AND SWAP2 POP JUMPDEST PUSH1 0x20 DUP3 LT DUP2 SUB PUSH3 0x2F5 JUMPI PUSH3 0x2F4 PUSH3 0x297 JUMP JUMPDEST JUMPDEST POP SWAP2 SWAP1 POP JUMP JUMPDEST PUSH1 0x0 DUP2 SWAP1 POP DUP2 PUSH1 0x0 MSTORE PUSH1 0x20 PUSH1 0x0 KECCAK256 SWAP1 POP SWAP2 SWAP1 POP JUMP JUMPDEST PUSH1 0x0 PUSH1 0x20 PUSH1 0x1F DUP4 ADD DIV SWAP1 POP SWAP2 SWAP1 POP JUMP JUMPDEST PUSH1 0x0 DUP3 DUP3 SHL SWAP1 POP SWAP3 SWAP2 POP POP JUMP JUMPDEST PUSH1 0x0 PUSH1 0x8 DUP4 MUL PUSH3 0x35F PUSH32 0xFFFFFFFFFFFFFFFFFFFFFFFFFFFFFFFFFFFFFFFFFFFFFFFFFFFFFFFFFFFFFFFF DUP3 PUSH3 0x320 JUMP JUMPDEST PUSH3 0x36B DUP7 DUP4 PUSH3 0x320 JUMP JUMPDEST SWAP6 POP DUP1 NOT DUP5 AND SWAP4 POP DUP1 DUP7 AND DUP5 OR SWAP3 POP POP POP SWAP4 SWAP3 POP POP POP JUMP JUMPDEST PUSH1 0x0 DUP2 SWAP1 POP SWAP2 SWAP1 POP JUMP JUMPDEST PUSH1 0x0 PUSH3 0x3AE PUSH3 0x3A8 PUSH3 0x3A2 DUP5 PUSH3 0x6C JUMP JUMPDEST PUSH3 0x383 JUMP JUMPDEST PUSH3 0x6C JUMP JUMPDEST SWAP1 POP SWAP2 SWAP1 POP JUMP JUMPDEST PUSH1 0x0 DUP2 SWAP1 POP SWAP2 SWAP1 POP JUMP JUMPDEST PUSH3 0x3CA DUP4 PUSH3 0x38D JUMP JUMPDEST PUSH3 0x3E2 PUSH3 0x3D9 DUP3 PUSH3 0x3B5 JUMP JUMPDEST DUP5 DUP5 SLOAD PUSH3 0x32D JUMP JUMPDEST DUP3 SSTORE POP POP POP POP JUMP JUMPDEST PUSH1 0x0 SWAP1 JUMP JUMPDEST PUSH3 0x3F9 PUSH3 0x3EA JUMP JUMPDEST PUSH3 0x406 DUP2 DUP5 DUP5 PUSH3 0x3BF JUMP JUMPDEST POP POP POP JUMP JUMPDEST JUMPDEST DUP2 DUP2 LT ISZERO PUSH3 0x42E JUMPI PUSH3 0x422 PUSH1 0x0 DUP3 PUSH3 0x3EF JUMP JUMPDEST PUSH1 0x1 DUP2 ADD SWAP1 POP PUSH3 0x40C JUMP JUMPDEST POP POP JUMP JUMPDEST PUSH1 0x1F DUP3 GT ISZERO PUSH3 0x47D JUMPI PUSH3 0x447 DUP2 PUSH3 0x2FB JUMP JUMPDEST PUSH3 0x452 DUP5 PUSH3 0x310 JUMP JUMPDEST DUP2 ADD PUSH1 0x20 DUP6 LT ISZERO PUSH3 0x462 JUMPI DUP2 SWAP1 POP JUMPDEST PUSH3 0x47A PUSH3 0x471 DUP6 PUSH3 0x310 JUMP JUMPDEST DUP4 ADD DUP3 PUSH3 0x40B JUMP JUMPDEST POP POP JUMPDEST POP POP POP JUMP JUMPDEST PUSH1 0x0 DUP3 DUP3 SHR SWAP1 POP SWAP3 SWAP2 POP POP JUMP JUMPDEST PUSH1 0x0 PUSH3 0x4A2 PUSH1 0x0 NOT DUP5 PUSH1 0x8 MUL PUSH3 0x482 JUMP JUMPDEST NOT DUP1 DUP4 AND SWAP2 POP POP SWAP3 SWAP2 POP POP JUMP JUMPDEST PUSH1 0x0 PUSH3 0x4BD DUP4 DUP4 PUSH3 0x48F JUMP JUMPDEST SWAP2 POP DUP3 PUSH1 0x2 MUL DUP3 OR SWAP1 POP SWAP3 SWAP2 POP POP JUMP JUMPDEST PUSH3 0x4D8 DUP3 PUSH3 0x28C JUMP JUMPDEST PUSH8 0xFFFFFFFFFFFFFFFF DUP2 GT ISZERO PUSH3 0x4F4 JUMPI PUSH3 0x4F3 PUSH3 0xC2 JUMP JUMPDEST JUMPDEST PUSH3 0x500 DUP3 SLOAD PUSH3 0x2C6 JUMP JUMPDEST PUSH3 0x50D DUP3 DUP3 DUP6 PUSH3 0x432 JUMP JUMPDEST PUSH1 0x0 PUSH1 0x20 SWAP1 POP PUSH1 0x1F DUP4 GT PUSH1 0x1 DUP2 EQ PUSH3 0x545 JUMPI PUSH1 0x0 DUP5 ISZERO PUSH3 0x530 JUMPI DUP3 DUP8 ADD MLOAD SWAP1 POP JUMPDEST PUSH3 0x53C DUP6 DUP3 PUSH3 0x4AF JUMP JUMPDEST DUP7 SSTORE POP PUSH3 0x5AC JUMP JUMPDEST PUSH1 0x1F NOT DUP5 AND PUSH3 0x555 DUP7 PUSH3 0x2FB JUMP JUMPDEST PUSH1 0x0 JUMPDEST DUP3 DUP2 LT ISZERO PUSH3 0x57F JUMPI DUP5 DUP10 ADD MLOAD DUP3 SSTORE PUSH1 0x1 DUP3 ADD SWAP2 POP PUSH1 0x20 DUP6 ADD SWAP5 POP PUSH1 0x20 DUP2 ADD SWAP1 POP PUSH3 0x558 JUMP JUMPDEST DUP7 DUP4 LT ISZERO PUSH3 0x59F JUMPI DUP5 DUP10 ADD MLOAD PUSH3 0x59B PUSH1 0x1F DUP10 AND DUP3 PUSH3 0x48F JUMP JUMPDEST DUP4 SSTORE POP JUMPDEST PUSH1 0x1 PUSH1 0x2 DUP9 MUL ADD DUP9 SSTORE POP POP POP JUMPDEST POP POP POP POP POP POP JUMP JUMPDEST PUSH2 0x287 DUP1 PUSH3 0x5C4 PUSH1 0x0 CODECOPY PUSH1 0x0 RETURN INVALID PUSH1 0x80 PUSH1 0x40 MSTORE CALLVALUE DUP1 ISZERO PUSH2 0x10 JUMPI PUSH1 0x0 DUP1 REVERT JUMPDEST POP PUSH1 0x4 CALLDATASIZE LT PUSH2 0x36 JUMPI PUSH1 0x0 CALLDATALOAD PUSH1 0xE0 SHR DUP1 PUSH4 0x5600F04F EQ PUSH2 0x3B JUMPI DUP1 PUSH4 0xDCF63591 EQ PUSH2 0x59 JUMPI JUMPDEST PUSH1 0x0 DUP1 REVERT JUMPDEST PUSH2 0x43 PUSH2 0x77 JUMP JUMPDEST PUSH1 0x40 MLOAD PUSH2 0x50 SWAP2 SWAP1 PUSH2 0x19B JUMP JUMPDEST PUSH1 0x40 MLOAD DUP1 SWAP2 SUB SWAP1 RETURN JUMPDEST PUSH2 0x61 PUSH2 0x105 JUMP JUMPDEST PUSH1 0x40 MLOAD PUSH2 0x6E SWAP2 SWAP1 PUSH2 0x1D6 JUMP JUMPDEST PUSH1 0x40 MLOAD DUP1 SWAP2 SUB SWAP1 RETURN JUMPDEST PUSH1 0x1 DUP1 SLOAD PUSH2 0x84 SWAP1 PUSH2 0x220 JUMP JUMPDEST DUP1 PUSH1 0x1F ADD PUSH1 0x20 DUP1 SWAP2 DIV MUL PUSH1 0x20 ADD PUSH1 0x40 MLOAD SWAP1 DUP2 ADD PUSH1 0x40 MSTORE DUP1 SWAP3 SWAP2 SWAP1 DUP2 DUP2 MSTORE PUSH1 0x20 ADD DUP3 DUP1 SLOAD PUSH2 0xB0 SWAP1 PUSH2 0x220 JUMP JUMPDEST DUP1 ISZERO PUSH2 0xFD JUMPI DUP1 PUSH1 0x1F LT PUSH2 0xD2 JUMPI PUSH2 0x100 DUP1 DUP4 SLOAD DIV MUL DUP4 MSTORE SWAP2 PUSH1 0x20 ADD SWAP2 PUSH2 0xFD JUMP JUMPDEST DUP3 ADD SWAP2 SWAP1 PUSH1 0x0 MSTORE PUSH1 0x20 PUSH1 0x0 KECCAK256 SWAP1 JUMPDEST DUP2 SLOAD DUP2 MSTORE SWAP1 PUSH1 0x1 ADD SWAP1 PUSH1 0x20 ADD DUP1 DUP4 GT PUSH2 0xE0 JUMPI DUP3 SWAP1 SUB PUSH1 0x1F AND DUP3 ADD SWAP2 JUMPDEST POP POP POP POP POP DUP2 JUMP JUMPDEST PUSH1 0x0 SLOAD DUP2 JUMP JUMPDEST PUSH1 0x0 DUP2 MLOAD SWAP1 POP SWAP2 SWAP1 POP JUMP JUMPDEST PUSH1 0x0 DUP3 DUP3 MSTORE PUSH1 0x20 DUP3 ADD SWAP1 POP SWAP3 SWAP2 POP POP JUMP JUMPDEST PUSH1 0x0 JUMPDEST DUP4 DUP2 LT ISZERO PUSH2 0x145 JUMPI DUP1 DUP3 ADD MLOAD DUP2 DUP5 ADD MSTORE PUSH1 0x20 DUP2 ADD SWAP1 POP PUSH2 0x12A JUMP JUMPDEST PUSH1 0x0 DUP5 DUP5 ADD MSTORE POP POP POP POP JUMP JUMPDEST PUSH1 0x0 PUSH1 0x1F NOT PUSH1 0x1F DUP4 ADD AND SWAP1 POP SWAP2 SWAP1 POP JUMP JUMPDEST PUSH1 0x0 PUSH2 0x16D DUP3 PUSH2 0x10B JUMP JUMPDEST PUSH2 0x177 DUP2 DUP6 PUSH2 0x116 JUMP JUMPDEST SWAP4 POP PUSH2 0x187 DUP2 DUP6 PUSH1 0x20 DUP7 ADD PUSH2 0x127 JUMP JUMPDEST PUSH2 0x190 DUP2 PUSH2 0x151 JUMP JUMPDEST DUP5 ADD SWAP2 POP POP SWAP3 SWAP2 POP POP JUMP JUMPDEST PUSH1 0x0 PUSH1 0x20 DUP3 ADD SWAP1 POP DUP2 DUP2 SUB PUSH1 0x0 DUP4 ADD MSTORE PUSH2 0x1B5 DUP2 DUP5 PUSH2 0x162 JUMP JUMPDEST SWAP1 POP SWAP3 SWAP2 POP POP JUMP JUMPDEST PUSH1 0x0 DUP2 SWAP1 POP SWAP2 SWAP1 POP JUMP JUMPDEST PUSH2 0x1D0 DUP2 PUSH2 0x1BD JUMP JUMPDEST DUP3 MSTORE POP POP JUMP JUMPDEST PUSH1 0x0 PUSH1 0x20 DUP3 ADD SWAP1 POP PUSH2 0x1EB PUSH1 0x0 DUP4 ADD DUP5 PUSH2 0x1C7 JUMP JUMPDEST SWAP3 SWAP2 POP POP JUMP JUMPDEST PUSH32 0x4E487B7100000000000000000000000000000000000000000000000000000000 PUSH1 0x0 MSTORE PUSH1 0x22 PUSH1 0x4 MSTORE PUSH1 0x24 PUSH1 0x0 REVERT JUMPDEST PUSH1 0x0 PUSH1 0x2 DUP3 DIV SWAP1 POP PUSH1 0x1 DUP3 AND DUP1 PUSH2 0x238 JUMPI PUSH1 0x7F DUP3 AND SWAP2 POP JUMPDEST PUSH1 0x20 DUP3 LT DUP2 SUB PUSH2 0x24B JUMPI PUSH2 0x24A PUSH2 0x1F1 JUMP JUMPDEST JUMPDEST POP SWAP2 SWAP1 POP JUMP INVALID LOG2 PUSH5 0x6970667358 0x22 SLT KECCAK256 DUP11 PUSH2 0xECDE PUSH18 0x37953C21AD24171C6C5F5AB5E70EAF141B5F TSTORE 0xBC ADDMOD PUSH18 0xCA74EC02CB64736F6C63430008180033A264 PUSH10 0x706673582212202BD6D7 0xFC CODESIZE PUSH30 0x47D2CC574C267BA7FAB65453F5C842786013570AE8B7DA0D1D6964736F6C PUSH4 0x43000818 STOP CALLER LOG2 PUSH5 0x6970667358 0x22 SLT KECCAK256 0x4C STOP 0x2D 0xE AND 0xEE 0xDC 0xDA PUSH2 0x969D 0xF PUSH26 0x3B709EF973166445905B7D4F525378A074451A64736F6C634300 ADDMOD XOR STOP CALLER "},"methodIdentifiers":{"createStudentId(string,string,string,uint256)":"3ce4986a","record(string)":"e51ace16","register(string,string,uint256,string)":"fb0bc6a3","toString(uint256)":"6900a3ae"}}}}}